:020000040800F2
:10000000C00D002069020008494B00086F47000836
:10001000254A00081D1A0008E15A000800000000E7
:10002000000000000000000000000000574D000824
:100030009B20000800000000554D0008A94E000854
:10004000830200088302000883020008830200087C
:10005000830200088302000883020008830200086C
:10006000830200088302000883020008830200085C
:10007000830200088302000883020008830200084C
:10008000511F0008611F0008830200088302000856
:10009000211A0008311A00088302000883020008B0
:1000A000830200088302000883020008830200081C
:1000B000830200088302000883020008830200080C
:1000C00083020008830200088302000883020008FC
:1000D00083020008655A0008755A00088302000868
:1000E00083020008830200088302000883020008DC
:1000F00083020008830200088302000883020008CC
:1001000083020008830200088302000883020008BB
:100110008302000883020008814F00088302000860
:100120008302000883020008711F00088302000890
:10013000830200088302000883020008830200088B
:10014000830200088302000883020008830200087B
:100150008302000883020008811F00088302000850
:10016000830200088302000883020008830200085B
:1001700083020008830200088302000800000000D8
:10018000830200088302000883020008830200083B
:10019000830200088302000883020008830200082B
:1001A00000000000000000008302000800F002F8D8
:1001B00000F04AF80AA090E8000C82448344AAF1B7
:1001C0000107DA4501D100F03FF8AFF2090EBAE8B5
:1001D0000F0013F0010F18BFFB1A43F0010318477B
:1001E000C8630000E8630000103A24BF78C878C1F3
:1001F000FAD8520724BF30C830C144BF04680C602D
:10020000704700000023002400250026103A28BF74
:1002100078C1FBD8520728BF30C148BF0B60704778
:100220001FB506F0B7F800F0A9FA0400002000217D
:1002300005F0A8FE401C60600020002105F08CFE47
:10024000E0601FBD10B510BD00F072FA1146FFF757
:10025000E7FF05F0E7FD00F01FFD03B4FFF7F2FF35
:1002600003BC00F0D5FD000009488047094800475D
:10027000FEE7FEE7FEE7FEE7FEE7FEE7FEE7FEE756
:10028000FEE7FEE704480549054A064B70470000B3
:100290006D4F0008AD010008C0070020C00D002010
:1002A000C0090020C009002053EA020C00F0698058
:1002B0002DE9F04B4FF00006002B1FBFB3FA83F57A
:1002C00003FA05F424FA05F65E4012BF1643B2FAAB
:1002D00082F502FA05F4C5F120051EBF22FA05FCDD
:1002E00044EA0C04203556EA044C4FEA144418BF83
:1002F000641C4FF000084FF00009904271EB030CB2
:1003000039D3002919BFB1FA81F701FA07F6B0FA1B
:1003100080F700FA07F6C7F120071EBF20FA07FC96
:1003200046EA0C062037B6FBF4FCA7EB0507103FA6
:1003300007F01F0BCBF120060CFA0BFB2CFA06F68C
:1003400044BFB3460026202FA4BF5E464FF0000BEB
:100350005BEA060C08BF4FF0010B19EB0B09ABFB76
:10036000027C48EB0608C01B06FB02CC0BFB03CC4F
:1003700071EB0C01C1E70B46024641464846BDE819
:10038000F08B13B54FF000004FF00001AFF3008089
:10039000BDE81C40704770B5064600F0ABF8046835
:1003A000054630460A22002100F006F92C6070BD97
:1003B000032A40F2308010F0030C00F0158011F891
:1003C000013BBCF1020F624498BF11F801CB00F869
:1003D000013B38BF11F8013BA2F1040298BF00F8BD
:1003E00001CB38BF00F8013B11F0030300F025807A
:1003F000083AC0F0088051F8043B083A51F804CBA1
:10040000A0E80810F5E7121D5CBF51F8043B40F866
:10041000043BAFF30080D20724BF11F8013B11F871
:1004200001CB48BF11F8012B24BF00F8013B00F8B5
:1004300001CB48BF00F8012B704710B5203AC0F03F
:100440000B80B1E81850203AA0E81850B1E81850D5
:10045000A0E81850BFF4F5AF5FEA027C24BFB1E812
:100460001850A0E8185044BF18C918C0BDE8104083
:100470005FEA827C24BF51F8043B40F8043B08BF8C
:100480007047D20728BF31F8023B48BF11F8012B53
:1004900028BF20F8023B48BF00F8012B70474FF0FF
:1004A000000200B5134694469646203922BFA0E8C4
:1004B0000C50A0E80C50B1F12001BFF4F7AF0907D0
:1004C00028BFA0E80C5048BF0CC05DF804EB8900C1
:1004D00028BF40F8042B08BF704748BF20F8022B04
:1004E00011F0804F18BF00F8012B7047704770471C
:1004F00070470000004870475C07002010B5FFF708
:10050000F9FF006810BD10B50446FFF7F3FF046063
:1005100010BD00000FB4002300B589B00CA90091F4
:100520000B99CB60214B7B440693214B7B44079373
:1005300004236FF00042CDE901321E4A7A446B4633
:1005400008920246002005F092FF09B05DF814FB06
:1005500070B506464FF0FF3015460C46324686B061
:100560000091CDE9010169460020049004A8FFF73D
:10057000D1FF02460498211825B108B1084600E0D1
:1005800020462860049800280DD0002A02DD00983B
:10059000884208D03246081B69460094CDE9010420
:1005A00004A8FFF7B7FF06B070BD000029010000E6
:1005B00041010000010100002DE9F04791460F467E
:1005C00080460446002614F8015B2DB100F030F897
:1005D0000068405DC007F6D12B2D02D02D2D18D01C
:1005E000641E4A463946204600F053F827B1396860
:1005F000A14201D1C7F800804FF0020471050BD56C
:100600004042002803DDFFF775FF0460A007BDE846
:10061000F08746F48066E4E70028F8DAFFF76AFF1F
:1006200004606FF00040F2E7004870475C0700206C
:1006300010B500F0A3F8001D10BD00BF495900001F
:1006400010B50446FFF7F4FF0068005D00F00100FC
:1006500010BD426842B1016811F8013B23B1521E3E
:10066000C0E90012184670470121C160881E70471A
:1006700042685AB1C368016843B983688B4205D0A8
:10068000491E521CC0E90012002070474FF0FF3095
:1006900070472DE9F05F824615468B4600270AF128
:1006A0000104B9460078302801D09DB113E014F858
:1006B000010B0127782803D0582801D045B10AE062
:1006C0000DB1102D07D1002714F8010B102502E001
:1006D000082500E00A250026B0460EE005FB0800CC
:1006E00005FB06F101271FFA80F801EB1046B6F56D
:1006F000803F00D3B94614F8010B294600F042F8B8
:100700000028EBDABBF1000F05D00FB1641E00E04A
:100710005446CBF80040B9F1000F06D0FFF7EAFECF
:1007200002210160C81EBDE8F09F48EA0640FAE7D2
:100730007546FFF779FFAE4605006946534620F03F
:100740000700854618B020B5FFF79CFDBDE82040A6
:100750004FF000064FF000074FF000084FF0000B7D
:1007600021F00701AC46ACE8C009ACE8C009ACE830
:10077000C009ACE8C0098D467047000000487047CA
:100780007C0700203A2800D2303820F02002412A8D
:1007900001D3A2F13700884201D34FF0FF307047F8
:1007A0002DE9FF4F06468BB00878FF2806D0491C7C
:1007B0002D2805D000244FF0000908E000200CE0AF
:1007C0000124F8E709EB8903491C00EB4309087889
:1007D000FF28F7D114B1C9F1000081461078002537
:1007E0002C46AA4629462D2801D02B2804D1521C7C
:1007F0002D2813D0002082468B461078FF280FD07A
:100800004FF0000C0A21521CA5FB017804FB01816A
:1008100005FB0C11C5194BEB0104EEE70120EAE7DB
:10082000002108464FF00000BAF1000F02D000EBA3
:1008300080004008C0F38157012F01DD4FF0FF37E2
:100840000E9955EA040009EB01080BD04FF002099C
:1008500018F5FA7F16DA4FEACA70002F706008DDCB
:10086000012007E04FEACA70C6E900B00FB0BDE84A
:10087000F08F00203060FFF73DFEC0F80090182197
:10088000084616E0B8F5FA7F18DD002F02DAF748BF
:10089000784401E0F6487844D0E90010C6E9001039
:1008A00040EACA707060FFF725FEC0F8009014217E
:1008B00008460FB0BDE8F04F05F076BD00210846B0
:1008C0004FF00000B8F10001099002DAC7F1000210
:1008D00000E03A4601DAC8F1000106A800F026FA65
:1008E00006AB93E8070003AB83E8070044F23E0041
:1008F0005BEA04010090584604D144F21E012C46E4
:100900005D460091210C0904014306D1009924049D
:1009100044EA15442D041039009104F07F4101434D
:1009200006D10099240244EA15642D020839009189
:1009300004F07041014306D10099240144EA157482
:100940002D01091F009104F04041014306D1009997
:10095000A40044EA9574AD00891E009104F00041A2
:10096000084304D100986D196441401E00904FF077
:1009700001033A466846B8F1000FCDE9014503A9E5
:1009800002DD00F014FF01E000F0E7FEBAF1000F15
:1009900004460D4601D084F00044002108464FF083
:1009A0000000099940F2FF77484010F00C0F07D182
:1009B00024F00040284303D0C4F30A50B84212D1B7
:1009C000FFF798FDC0F80090C4F30A50B8420AD16E
:1009D000A8487844D0E90010C6E9001004F00041AE
:1009E0000843706042E7C6E900543FE72DE9FF4F36
:1009F0001F464FF0000A4FF0FF38454691B0D7E947
:100A00000146CDF83CA0FFF7B9FEC0680168405C24
:100A10001090B96912986D1C8847396A81468847D9
:100A20000028F6D1B9F1FF3F0AD0002E24F4D0649B
:100A300011DDB9F12B0F08D0B9F12D0F0BD102E068
:100A4000404615B013E744F48064B96912986D1CF0
:100A50008847761E8146600504A901D52D2000E057
:100A60002B20002E01F1010B0DF130088DF8100044
:100A70003FDDB9F1690F08D0B9F1490F05D0B9F1DF
:100A80006E0F02D0B9F14E0F1CD13B4601A8009564
:100A900080E85002DDE912126FF0020005F0EBFC75
:100AA000C11CCED10EE0B96912986D1C88478146F1
:100AB0001398761E44F4007405600F98401C002EB5
:100AC0000F9016DDB9F1300FEDD0B9F1780F02D0EB
:100AD000B9F1580F0DD10F9801280AD13B46CDE945
:100AE0000054DDE91212001F029605F0C2FCC11C81
:100AF000A7D1109989453ED144F0800406E01399AE
:100B0000681CAAF1010A44F400740860B9696D1CFC
:100B10001298761E884730288146F0D02BE0109935
:100B2000894505D1200603D4761E44F0800418E0E0
:100B3000484605F028F908B3761E0DF123018B45D0
:100B400044F4007408D2A9F130000BF8010B200620
:100B500007D5AAF1010003E0200602D40AF1010042
:100B60008246A00502D51399681C0860B9691298DD
:100B70006D1C88478146002ED1DC53E0002E51DDEC
:100B8000B9F1650F02D0B9F1450F4BD1A00549D598
:100B9000B9696D1C1298761E24F440748847002EA3
:100BA00081460CDD2B2804D0B9F12D0F07D144F478
:100BB0008074B96912986D1C8847761E8146E005DD
:100BC00001D52D2100E02B2108F8011BCDF8008074
:100BD00021E0761E0DF13901884544F400740CD2F1
:100BE000A9F1300010F0FF0088F8000002D1009950
:100BF000884509D908F1010806E0E00501D51E483D
:100C000001E042F20F708246B96912986D1C884764
:100C1000814613980560002E04DD484605F0B3F8C0
:100C20000028D6D1F96912988847FF2053468BF8DF
:100C3000000088F8000000200A900B9004AA0CA97C
:100C40000AA8FFF7ADFDA00502D46FF00100F8E699
:100C500014F0240F12D0E0071CD13868DDE90A1225
:100C6000031D3B600068C0E9001213E03C5D00001A
:100C70002E5D0000F25B0000F1D8FFFF0AA9684674
:100C800005F06EF8E00705D13868009A011D39605B
:100C9000006802602846D4E610B50446AFF3008031
:100CA0002046BDE81040FFF7D8BA00004FF0013CE5
:100CB00050F8042B51F8043B9A4221D1A2EB0C03CB
:100CC000934313EACC1317D150F8042B51F8043B8B
:100CD0009A4215D1A2EB0C03934313EACC130BD128
:100CE00050F8042B51F8043B9A4209D1A2EB0C03B3
:100CF000934313EACC13DBD04FF00000704700BFE2
:100D0000D01A01BAB1FA81F101F0180122FA01F00A
:100D1000CB40C1F12001DBB2C0B2C01A2CFA01F302
:100D2000D11A914311EAC311E6D170472DE9F0477A
:100D3000814616468AB0354878440DC88DE80D00C6
:100D400032487844801C03AC0DC884E80D0041F69D
:100D50009B300844372190FBF1F290FBF1F5A5F1AF
:100D6000800501FB12041B3C02D56442012000E017
:100D70000020DFF898A080460027FA44AAF1BE0AB6
:100D80000EE0E0070AD03246684607EB4701012330
:100D90000AEB810100F0F6FC8DE8070064107F1C6F
:100DA000002CEED1194F7F44AE3F19E0E80715D073
:100DB00007EB04100DF1180A90E80E008AE80E0007
:100DC000C068F04201D1981908903246012306A963
:100DD00003A800F0D7FC03AB83E807006D10641C88
:100DE000002DE3D14FF0010332466946B8F1000F00
:100DF00003A802D000F09CFC01E000F0C3FCC9E9AC
:100E00000001C9F808200AB0BDE8F0875458000076
:100E100001491820ABBEFEE7260002002DE9FF4F76
:100E20001F464FF03C0987B04FF00042DDE9141037
:100E300001F10108DDF858A002EA405003900020BB
:100E400005908346054604460490B969461E0898F5
:100E50008847AAF1010A0290BAF1000F3BDD02981F
:100E60002E2815D01021FFF78DFC00282EDB4FF027
:100E7000010B0599014317D0B9F1000F0BDB4A466E
:100E8000C11700F0F6F905430C43A9F1040905E088
:100E9000012004900BE008B145F001050120059008
:100EA000049820B9361D02E0049800B1361FB969D4
:100EB000089808F101088847BBF1000FAAF1010A60
:100EC0000290C9D00999C1F80080C5E7029870283E
:100ED00008D0502806D0F96908988847BBF1000F60
:100EE00014D04FE0002002900120BBF1000F0490CD
:100EF00009D0B969089808F101088847AAF10109E1
:100F0000B9F1000F07DCF969089888476FF0010014
:100F10000BB0BDE8F08F2B2804D02D280CD14FF05A
:100F2000FF300490B969089808F101088847A9F1D1
:100F30000109B9F1000FE6DD411CE4D00A21FFF7F9
:100F400021FC0028DFDB029908F1010801EB810197
:100F500000EB41000290B969089888470A21FFF721
:100F600011FC099AA9F10109B9F1000FC2F800803A
:100F700001DD0028E7DAF9690898884704990298A2
:100F800000FB016655EA040004D004F0404109006A
:100F900002D006E0039898E0A40044EA9574AD00FE
:100FA000B61E04F00041080002D16D196441761E9E
:100FB000159810F0240F03D04FF00B095C4803E0A4
:100FC0004FF028096FF07D008246564507DAAAEBFC
:100FD00006018944B9F1410F01DD4FF041090120BB
:100FE0000021A9F1010200F044F9024628400B4615
:100FF0002140084301D0012100E00021501E029150
:1010000043F1FF3128402140084301D0012000E096
:1010100000200299834651EA0B014FD00021084677
:101020004FF00000039900F4400039B100EB80005C
:101030004FF4400100EBD07001EA600080150128F8
:1010400002DD4FF0FF3000E013D0401C36D0029894
:1010500060B3BBF1000F0CD14A460120002100F023
:1010600008F928402140084301D0012000E0002079
:10107000E0B101204A46002100F0FBF80346401988
:101080000A4661412D1A8C4111D3B9F1400F09DD97
:10109000159810F0240F02D0AAF1340603E0AAF14B
:1010A000170600E0761C00254FF0004406E05B1EAA
:1010B00042F1FF3220EA030521EA0204CAF10100ED
:1010C000B04206DA1B4903980843019000200090C3
:1010D0000EE0039AC4F3D321E80A0A43164940EA12
:1010E00044500A433146CDE90002684604F041FE0F
:1010F000159810F0240F0BD01598C00715D138683B
:10110000DDE90012031D3B600068C0E900120CE03D
:1011100002A8694604F024FE1598C00705D1386876
:10112000029A011D3960006802604046F0E6000046
:1011300002FCFFFF0000F07F0000F03F2DE9FF4FB1
:1011400092461D4685B04FF00041DDE9124BDDE9C6
:1011500014727F1E01EA4B50414940F0FF4940EABA
:101160000108002122F020004928049102D04E28D5
:1011700028D04CE03BA0012607C88DE80700A969EC
:101180000698641C88477F1E014606D41DF8060099
:1011900018B121F0200181420BD0E96906988847F7
:1011A000032E34D0082E32D06FF0010009B0BDE814
:1011B000F08F761C032E01D0082EE0D1601CCAF8F7
:1011C0000000DCE7A9690698641C88477F1E2AD4C2
:1011D00020F02000412826D1A9690698641C884780
:1011E0007F1E20D420F020004E281CD1A96906982B
:1011F000641C88477F1E48F4002849F48009CAF817
:10120000004001D4282806D0E969069888475FEA9B
:10121000CB7012D022E0A9690698641C88477F1E13
:1012200001D4002803DAE96906988847BCE7292831
:10123000F1D1641CCAF80040E9E71BF0240F07D085
:1012400028680499031D2B600068C0E9001805E0B8
:101250002868021D2A600068C0F800902046A5E7B3
:101260000000F07F494E46494E49545900000000A5
:101270007047B2F120030AD5C2F1200301FA02F14E
:1012800020FA03F300FA02F041EA0301704700FA82
:1012900003F14FF00000704720F07F4C80EA03001C
:1012A00023F07F47ACEB070303F57C5300F00040CD
:1012B00003F1FF032DE980494FEA154B09B44FEACA
:1012C000144325EA0B4E24EA03480FF2042606EBEA
:1012D000132749083E785FEA320203FB0667C7F529
:1012E000000707FB06F64FEA54374FEAD64606F1E9
:1012F000020607FB066CCCF1005C4FEA1C472CEAA7
:10130000074C07FB06F40CFB06F504EB15464FEA09
:10131000961634BF00204FF000404FEAD13706FB4D
:1013200007FC4FEA1C4C0CFB0BF7D21B03FB0CF722
:1013300061EB07010CFB0EF7B0EB074072EB1742B5
:101340000CFB08F734BFA2EB0742B2EB074261EB9C
:1013500017414FEA0C444FEA910706FB07FC4FEA9E
:101360001C4C0CFB0BF7B0EBC74072EB573203FB86
:101370000CF734BFA2EBC742B2EBC74261EB573167
:101380000CFB0EF7B0EBC70072EB57720CFB08F7C3
:1013900034BFA2EBC702B2EBC70261EB5771039FE8
:1013A0004FEA816141EA921104EBCC044FEAD13754
:1013B0004FEA826206FB07FC42EA90124FEA806025
:1013C0004FEA1C4C0CFB0BF7D21B03FB0CF761EB39
:1013D00007010CFB0EF7B0EB074072EB17420CFB5A
:1013E00008F734BFA2EB0742B2EB074261EB1741AB
:1013F0004FEA8C554FEA910704EB9C2406FB07FC4F
:101400004FEA1C4C0CFB0BF7B0EBC74072EB5732AA
:1014100003FB0CF734BFA2EBC742B2EBC74261EB50
:1014200057310CFB0EF7B0EBC70072EB57720CFB99
:1014300008F734BFA2EBC702B2EBC70261EB5771EA
:1014400015EB4C254FEA816141EA92114FEA826225
:101450004FEAD13742EA901206FB07FC44F1000440
:101460004FEA80604FEA1C4C0CFB0BF7D21B03FBCE
:101470000CF761EB07010CFB0EF7B0EB074072EBCA
:1014800017420CFB08F734BFA2EB0742B2EB07424E
:1014900061EB174115EB1C154FEA813141EA92418E
:1014A0004FEA823242EA90424FEA80304FEA0C76AD
:1014B00044F1000448EA03434EEA0B484FF0000EA3
:1014C000B2EB080C71EB030724BF624639464EEBC2
:1014D0000E0E4FF0000B0018524149414BEB0B0B25
:1014E000B2EB080C71EB03077BF1000B24BF6246E3
:1014F00039464EEB0E0E4FF0000B00185241494199
:101500004BEB0B0BB2EB080C71EB03077BF1000B01
:1015100024BF624639464EEB0E0E51EA020718BF51
:1015200046F0010616EB0E7655F1000254F100016B
:1015300003D5BDE88901BDE80088BDE88901BDE8A3
:101540000048B619524141EB0101A3F10103704774
:1015500080807F7E7D7C7B7A7978777676757473F0
:10156000727171706F6E6E6D6C6C6B6A6A696868AF
:10157000676666656464636362616160605F5F5E45
:101580005E5D5D5C5C5B5B5A5A59595858575756BB
:101590005655555554545353525252515150505020
:1015A0004F4F4F4E4E4D4D4D4C4C4C4B4B4B4A4A72
:1015B0004A494949484848474747474646464545B6
:1015C00045444444444343434342424242414141EF
:1015D00046EA0646A3F570534FEA164646EA4256D7
:1015E0004FEAD22242EA415210B54FEAD121A3F18B
:1015F000010300F02FF820F0004000F1020C00F091
:10160000004701EB00501146BCF5006F40EA0700AF
:1016100000D210BDBAF1000F0AD01CB503B44FF0D0
:1016200004004FF004014FF000000FBCBDE8104073
:101630004FF00001BBF1010FB9BF04484FF0FF317B
:101640000348002140EA070010BD00BFFFFFEF7F05
:101650000000F07F002B9C4630D477002BD01CB5C7
:101660004FEA370703B44FF010004FF01001BAF102
:10167000000F06D0BCF1000FDCBF40F0080040F0C6
:1016800008014FF000000FBCBDE810400BF1010B4A
:10169000BBF1010F08BF5FEA170722BF12F1010279
:1016A00011F101014FF0004143F1000300F000404F
:1016B00043EA00007047F9D35708D0E746EA0646E8
:1016C00013F1400F4FEA16461FDD13F1200FDFBF65
:1016D00016430A46002120335B42BED0C3F12007E7
:1016E00046EA064602FA07F74FEA164646EA0706B2
:1016F000C3F1200722FA03F201FA07F721FA03F1F6
:101700004FF0000342EA0702A7E746EA020646EA6C
:1017100006464FEA164646EA0106BCBF46EA0646BA
:10172000360C4FF000034FF000024FF0000194E739
:101730002DE9804C9A46934670B491E8380007C86A
:1017400031EA400C48BF34EA430C03D5FFF7A4FD4F
:10175000FFF780FFF0BCBDE8008C2DE9804C9A4675
:10176000934670B491E8380007C831EA400C48BF8E
:1017700034EA430C03D5FFF78FFDFFF729FFF0BCD8
:10178000BDE8008C2DE9804C9A46934670B491E8F0
:10179000380007C810F0804F08BF13F0804F03D106
:1017A00000F01AF8FFF756FFF0BCBDE8008C2DE9F9
:1017B000804C9A46934670B491E8380007C810F000
:1017C000804F08BF13F0804F03D100F005F8FFF7FA
:1017D000FFFEF0BCBDE8008C20F07F4780EA0300EC
:1017E00023F07F4C07EB0C03A3F57C5300F0004083
:1017F000A3F1FE0392F0000F00F0B38095F0000F0C
:1018000000F077802DE901494FEA11404FEA144674
:1018100021EA004800FB06FC24EA064708FB06F61E
:1018200007FB08F800FB07F718EB06484CEB164CD3
:101830004FEA124B18EB07484FEA15464CEB17409E
:1018400022EA0B4E0BFB06FC25EA06470EFB06F6CA
:1018500007FB0EFE0BFB07F71EEB064E4CEB164C80
:101860004FF000061EEB074E4CEB174B18EB0B0826
:1018700040F1000018EB0E0B58EB000840F100009F
:101880008F1A4FF000013CBFC943661B14BFB5EB74
:10189000040C00213CBFC943F61B4FEA17444EEA33
:1018A0008E0E27EA04454FEA1C4704FB07622CEA28
:1018B000074C05FB07F70CFB05F604FB0CFC16EBCD
:1018C000074642EB174216EB0C4642EB1C421BEB61
:1018D000060658EB0202414146EA9E0601D5BDE8E4
:1018E0000189B619524141EB0101A3F10103BDE8A1
:1018F00001894FEA14454FEA114724EA054621EAD7
:10190000074C05FB07F406FB07F70CFB06F105FB8C
:101910000CFC11EB074144EB17444FEA124711EB63
:101920000C4144EB1C4422EA074C05FB07F206FB82
:1019300007F70CFB06F605FB0CFC16EB074642EB23
:10194000174216EB0C4642EB1C456A1854F1000195
:1019500048BF7047B619524141EB0101A3F10103A1
:10196000704795F0000F37D04FEA11424FEA144705
:1019700021EA024624EA074C02FB07F106FB07F7BF
:101980000CFB06F402FB0CFC14EB074441EB174183
:101990004FEA154714EB0C4441EB1C4125EA074C78
:1019A00002FB07F506FB07F70CFB06F602FB0CFC37
:1019B00016EB074645EB174516EB0C4645EB1C426C
:1019C000121951F1000148BF7047B619524141EB5D
:1019D0000101A3F1010370474FEA14454FEA114793
:1019E00024EA054621EA074C05FB07F106FB07F749
:1019F0000CFB06F24FF0000605FB0CFC12EB074255
:101A000041EB174112EB0C4251EB1C4148BF7047B0
:101A1000921841EB0101A3F10103704700BFFEE7FB
:101A200010B5024800F03DFD10BD0000F0000020A0
:101A300010B5024800F035FD10BD0000F000002098
:101A4000F0B58BB007460C4615461E4604F0010063
:101A500008B10BB0F0BDC4F3400000B1F9E7680570
:101A6000000C0190002002907005000C03900020F3
:101A70000490E0080690002007900120089009904B
:101A80000E200A90C4F38000059001A9384600F0AA
:101A9000ADFB00BFDDE7000030B5024602F11C01DE
:101AA0001368B3F5007F02D9B3F5017F00D930BDCB
:101AB000A3F2012404EBC40505EB04141B4D05EB54
:101AC0008400048804814C780D7844EA052424B20B
:101AD0000480CC788D7844EA052424B244804C7983
:101AE0000D7944EA052424B284808C7984710488B9
:101AF0000589641B24B24481B0F90A4014F5805F63
:101B000003DAC468641CC46007E0B0F90A40B4F5A5
:101B1000805F02DDC468641EC460B0F90050C46810
:101B200005EB4434046100BFC1E70000CC05002090
:101B3000F0B587B006460C4617461D4601940020B6
:101B400002900390049005956B463A4601A93046F1
:101B500000F0A7FA07B0F0BD70B504460D46204668
:101B600000F00DFF2068406940F0020021684861E4
:101B70002068406940F01000216848610148856292
:101B800070BD0000AC030020074B93ED000A80ED10
:101B9000000A064B93ED000A81ED000A044B93ED19
:101BA000000A82ED000A70478C000020900000209F
:101BB00094000020274B93ED082AB0EE420A93EDE3
:101BC000212AF0EE420A93ED3A2AB0EE421A93ED42
:101BD000532AF0EE421A30EE602A32EE412A32EEFB
:101BE000212ADFED1D2A22EE222AF6EE002A22EE1D
:101BF000222ADFED1A2A22EE222A80ED002AB1EEF7
:101C0000402A32EE602A32EE012A32EE212ADFED3E
:101C1000122A22EE222AF6EE002A22EE222ADFEDF6
:101C20000F2A22EE222A81ED002A30EE202A32EEFF
:101C3000012A32EE212ADFED0A2A22EE222AF5EECF
:101C4000002A22EE222ADFED072A82EE223A82EDD6
:101C5000003A7047CC050020CDCC4C3DF304353F15
:101C6000CDCC4CBD546DFD3E10B503F0D5F800B998
:101C700010BD084840880849088006480088074980
:101C800008800448C088064908800120054908707A
:101C900000BFEDE770030020A6000020A800002090
:101CA000AA000020AC00002010B52DED048B03F03D
:101CB000B3F880B92D48007838B19FED2D1ADFEDCB
:101CC0002C0A9FED2B0A00F07DF8002027490870B0
:101CD000BDEC048B10BD0120244908702548007814
:101CE00008B9FFF7C1FF2448008940F2DC5188425F
:101CF00008DA9FED1F1ADFED1E0A9FED1D0A00F0A6
:101D000061F8E5E71C4948881C49098802F032FD62
:101D1000F7EE000A20EE200ADFED190A20EE208AF5
:101D2000154908881749098802F024FDFFEE000ACA
:101D300020EE200ADFED120A60EE208A0E49C888E4
:101D40001149098802F016FDF7EE000A20EE200A7C
:101D5000F7EE000A20EE209AB0EE491AF0EE680A7B
:101D6000B0EE480A00F02EF800BFB1E7A400002052
:101D700000000000AC00002070030020A60000203E
:101D8000CDCC4C3FA8000020AA000020F0EE401A65
:101D900030EEE10AB0EE402AB4EEC12AF1EE10FABC
:101DA00002DD31EE810A7047B1EE410AB4EEC02A7D
:101DB000F1EE10FA02D231EEC10AF4E7B0EE600A99
:101DC000F1E70000044880ED000A0448C0ED000A75
:101DD000034880ED001A7047980000209C00002006
:101DE000A000002010B52DED048B9FED4E1A4E483B
:101DF000D0ED000A4D4890ED000AFFF7C7FF4B48B1
:101E000080ED000A9FED471A4948D0ED000A494885
:101E100090ED000AFFF7BAFF464880ED000A9FEDFB
:101E2000461A4648D0ED000A454890ED000AFFF7F3
:101E3000ADFF434880ED000A3C4890ED000A3D4864
:101E4000D0ED000A30EE600ADFED3E0A20EE200AF7
:101E50003B48D0ED000A9FED3C1A01EE600ADFED31
:101E60003B0A80EE201AB0EE418A304890ED000A1D
:101E7000B1EE400A2F48D0ED000A30EE600ADFEDE7
:101E8000310A20EE200A2E48D0ED000A9FED2E1ACE
:101E900001EE600ADFED2D0A80EE201AF0EE418A95
:101EA000224890ED000AB1EE400A2248D0ED000A27
:101EB00030EE200ADFED230A20EE200A2048D0ED84
:101EC000000A9FED211A01EE600ADFED200A80EE84
:101ED000201AB0EE419A154890ED000A1548D0ED51
:101EE000000A30EE200ADFED170A20EE200A14481F
:101EF000D0ED000A9FED141A01EE600ADFED130A1F
:101F000080EE201AF0EE419AF0EE691AB0EE491A0E
:101F1000F0EE680AB0EE480A02F00AFEBDEC048B4F
:101F200010BD00006F12033B980000208C000020C1
:101F30009C000020900000206F12833BA000002036
:101F400094000020F304353F546DFD3ECDCC4C3D54
:101F500010B5024800F0B4FD10BD0000B002002032
:101F600010B5024800F0ACFD10BD000010030020C9
:101F700010B5024800F0A4FD10BD0000F0010020E3
:101F800010B5024800F09CFD10BD0000500200207A
:101F90000146087810381823B0FBF3F20848805C3B
:101FA000C865032A05D908686FF30900001D886514
:101FB00003E008686FF309008865886D70470000CA
:101FC000AA640008014600208A6A8B69CBB932B145
:101FD000012A0DD0022A03D0032A10D10EE000BF3F
:101FE000CB6A03F08073B3F1807F00D1012007E05A
:101FF000CB6AB3F1C07F00D1012001E000E000BF57
:1020000034E08B69B3F5005F1AD132B1012A07D0F1
:10201000022A03D0032A11D10AE000BF01200EE0FA
:10202000CB6A03F08073B3F1807F00D1012006E01A
:10203000CB6AB3F1C07F00D1012000E000BF15E002
:1020400032B1012A05D0022A04D0032A0CD103E0C0
:1020500000BF00BF012008E0CB6A03F08073B3F13A
:10206000807F00D1012000E000BF00BF704730B585
:102070000468246824F4802405682C600468636084
:102080008468402C04D10468A2600468E16003E025
:102090000468A1600468E26030BD704772B600BF9A
:1020A000FEE7F0B504460D461E4694F82070206801
:1020B0008368A86800B900E000BF012F01D0022F9B
:1020C0007DD103F0806030B903F0006018B903F0EF
:1020D000805000287ED0C3F3016101208840306029
:1020E000A86860B9B5F800C0E86840EA4C5C2068B0
:1020F00000F5C07000EB0110C0F800C00FE0D5E99A
:1021000001C040EACC00D5F80CC040EA0C00D4F87D
:1021100000C00CF5C07C0CEB011CCCF80000D5F81D
:1021200010C0206800F5C07000EB0110C0F804C0BA
:10213000287D01280ED1206800F5C07000EB011049
:10214000406840F4807C206800F5C07000EB01100E
:10215000C0F804C0D079000692F806C040EA0C40EE
:1021600092F805C040EA0C2092F804C040EA0C0046
:10217000D4F800C00CF5C07C0CEB011CCCF80C00B2
:10218000D078000692F802C040EA0C4092F801C0F4
:1021900040EA0C2092F800C040EA0C00D4F800C0DD
:1021A0000CF5C07C0CEB011CCCF80800206800F595
:1021B000C07000EB0110006840F0010C01E00FE07E
:1021C00008E0206800F5C07000EB0110C0F800C006
:1021D0000020F0BD606A40F4001060620120F8E762
:1021E000606A40F4802060620120F2E7F0B50446A6
:1021F0000A4694F82050012D01D0022D7ED142498B
:1022000001F50071086840F001000860086820F4DA
:102210007C5008600868566A40EA06200860107D15
:1022200000F01F06012000FA06F3C8699843C86150
:10223000A1F50071D069C8B9D1F80C029843C1F872
:102240000C02908880B2968940EA064601F510702B
:10225000576940F83760108880B2168940EA064610
:1022600001F51070576900EBC7004660D06901287E
:1022700019D1D1F80C021843C1F80C02908880B231
:10228000168840EA064601F51070576940F8376035
:10229000908980B2168940EA064601F510705769A8
:1022A00000EBC7004660906928B9D1F80402984352
:1022B000C1F8040204E0D1F804021843C1F8040292
:1022C000106928B9D1F814029843C1F8140204E047
:1022D000D1F814021843C1F81402106A012804D17D
:1022E000D1F81C021843C1F81C02D1F8000220F0FA
:1022F0000100C1F800020020F0BDFFE7606A40F471
:10230000802060620120F7E700640040704770B5EC
:10231000044694F82050012D01D0022D7DD151B9F1
:102320002068C06800F0030080B9606A40F40010C3
:102330006062012070BD2068006900F0030028B9C8
:10234000606A40F4001060620120F3E7206800F545
:10235000D87000EB0110006800F0040090609068F5
:1023600040B9206800F5D87000EB01100068400DFE
:10237000106007E0206800F5D87000EB01100068DD
:10238000C0085060206800F5D87000EB01100068AC
:1023900000F00200D060206800F5D87000EB01105A
:1023A000406800F00F00082802D30820106108E000
:1023B000206800F5D87000EB0110406800F00F00B5
:1023C0001061206800F5D87000EB0110406800F43F
:1023D0007F40000A9061206800F5D87000EB011082
:1023E0004068000C5061206800F5D87000EB0110C7
:1023F00080681870206800F5D87000EB01108068C4
:1024000000F47F40000A5870206800F5D87000EB97
:102410000110806800F47F0000E03CE0000C987040
:10242000206800F5D87000EB01108068000ED870AD
:10243000206800F5D87000EB0110C06818712068A2
:1024400000F5D87000EB0110C06800F47F40000A6E
:102450005871206800F5D87000EB0110C06800F4D6
:102460007F00000C9871206800F5D87000EB011017
:10247000C068000ED87131B92068C06840F02000F3
:102480002668F06005E02068006940F020002668BA
:10249000306100204EE7606A40F4802060620120D5
:1024A00048E72DE9F05F044600252068466920686A
:1024B000D0F80490206887682068D0F80CA02068C5
:1024C000D0F810B02068D0F8188006F0010000287D
:1024D00055D007F00100C0B101202168886007F0E5
:1024E000020018B1204600F07AFA0EE007F004006E
:1024F00010B145F4006508E007F0080010B145F49C
:10250000805502E0204600F069FA07F48070C8B1F7
:102510004FF480702168886007F4007018B120467D
:1025200000F05FFA0EE007F4806010B145F400554A
:1025300008E007F4006010B145F4804502E0204651
:1025400000F04EFA07F48030C8B14FF480302168B3
:10255000886007F4003018B1204600F044FA0EE01D
:1025600007F4802010B145F4004508E007F400208E
:1025700010B145F4803502E0204600F033FA06F051
:10258000080038B10AF0100020B145F400751020A1
:102590002168C86006F0040040B10AF0080028B1C4
:1025A00008202168C860204600F0B0F906F002005B
:1025B00038B12068C06800F0030010B1204600F078
:1025C000A7F906F0400038B10BF0100020B145F437
:1025D000806510202168086106F0200040B10BF0F2
:1025E000080028B1082021680861204600F0AAF9F7
:1025F00006F0100038B12068006900F0030010B147
:10260000204600F0A1F906F4003040B109F01000B6
:1026100028B1102021684860204600F0AFF906F488
:10262000803040B109F0080028B1082021684860D6
:10263000204600F0D9F906F4004088B309F0040000
:1026400078B306F4807020B108F0010008B145F0BD
:10265000010506F4007020B108F0020008B145F051
:10266000020506F4806020B108F0040008B145F0CE
:10267000040506F40060A0B108F0700088B108F00D
:102680007000402817D006DC10280BD020280CD072
:10269000302819D10CE0502810D0602814D110E057
:1026A0001DE019E045F008050FE045F010050CE0CD
:1026B00045F0200509E045F0400506E045F08005BD
:1026C00003E045F4807500E000BF00BF206880692A
:1026D00020F07000216888610420216848602DB1D5
:1026E000606A284360622046FFF710FEBDE8F09F55
:1026F00070B504460CB9012070BD94F8200010B9E3
:10270000204600F0AFF82068006840F00100216822
:10271000086000F0BDFC05460DE000F0B9FC401B70
:102720000A2808D9606A40F400306062052084F805
:1027300020000120E0E72068406800F00100002848
:10274000EBD02068006820F002002168086000F0EB
:102750009FFC05460DE000F09BFC401B0A2808D9B1
:10276000606A40F400306062052084F82000012097
:10277000C2E72068406800F002000028EBD1207E0C
:10278000012806D12068006840F0800021680860B8
:1027900005E02068006820F0800021680860607E05
:1027A000012806D12068006840F0400021680860D8
:1027B00005E02068006820F0400021680860A07EE5
:1027C000012806D12068006840F0200021680860D8
:1027D00005E02068006820F0200021680860E07EA5
:1027E000012806D12068006820F0100021680860E8
:1027F00005E02068006840F0100021680860207F34
:10280000012806D12068006840F0080021680860AF
:1028100005E02068006820F0080021680860607FFB
:10282000012806D12068006840F004002168086093
:1028300005E02068006820F0040021680860D4E901
:102840000201084321690843616908436168491E20
:1028500008432168C86100206062012084F82000DC
:10286000002049E710B586B00446142101A8FDF701
:1028700016FE2349206888423FD100BF0020009007
:102880002048006840F000701E4908600846006853
:1028900000F00070009000BF00BF00BF002000905B
:1028A00018481038006840F00800164910390860D0
:1028B0000846006800F00800009000BF00BF032039
:1028C0000190022002900020039003200490092030
:1028D000059001A90C4800F0D3FA002211461420FB
:1028E00000F064FC142000F04DFC0022114615207D
:1028F00000F05CFC152000F045FC06B010BD0000A7
:102900000064004040380240000C02407047000064
:1029100010B504460849206888420BD1074BA3F143
:102920001C0200212046FFF7F2FC0548816A03489B
:102930001C38884710BD00000064004028040020B7
:10294000AC0300207047000010B504460849206819
:1029500088420BD1074BA3F11C0201212046FFF74F
:10296000D6FC0548816A03481C38884710BD000022
:10297000006400404C040020AC030020704770B598
:10298000044694F82000012822D1022084F8200077
:102990002068006820F001002168086000F078FBE2
:1029A00005460DE000F074FB401B0A2808D9606A58
:1029B00040F400306062052084F82000012070BDE2
:1029C0002068406800F001000028EBD16062F6E763
:1029D000606A40F4002060620120F0E770477047B1
:1029E0007047704770477047704770B50446A56DD3
:1029F00000F04EFB064694F83500022808D08020EF
:102A0000606500BF002084F8340000BF012070BD65
:102A10002068006820F0160021680860206840697E
:102A200020F0800021684861206C08B9A06C28B1B2
:102A30002068006820F008002168086020680068AD
:102A400020F001002168086010E000F021FB801BED
:102A500005280BD920206065032084F8350000BFCD
:102A6000002084F8340000BF0320D0E7206800680D
:102A700000F001000028E8D194F85C103F20884065
:102A8000A860012084F8350000BF002084F83400DD
:102A900000BF00BFBBE7014691F83500022803D014
:102AA0008020486501207047052081F835000868BE
:102AB000006820F001000A6810600020F3E70000C1
:102AC000F8B50446002000908C4800684FF4165179
:102AD000B0FBF1F7A56D2E6894F85C1008208840D3
:102AE000304098B12068006800F0040070B12068A0
:102AF000006820F004002168086094F85C10082049
:102B00008840A860606D40F00100606594F85C103A
:102B100001208840304068B12068406900F08000A2
:102B200040B194F85C1001208840A860606D40F0CE
:102B30000200606594F85C1004208840304068B161
:102B40002068006800F0020040B194F85C10042096
:102B50008840A860606D40F00400606594F85C10E7
:102B600010208840304078B32068006800F00800EA
:102B700050B394F85C1010208840A860206800686A
:102B800000F4802080B12068006800F4002028B99B
:102B9000206CC8B12046216C884715E0A06C98B124
:102BA0002046A16C88470FE02068006800F4807020
:102BB00028B92068006820F0080021680860206CAF
:102BC00010B12046216C884794F85C102020884082
:102BD0003040002865D02068006800F01000002810
:102BE0005FD094F85C1020208840A86094F83500ED
:102BF000052828D12068006820F0160021680860A8
:102C00002068406920F0800021684861206C08B984
:102C1000A06C28B12068006820F0080021680860D6
:102C200094F85C103F208840A860012084F83500AB
:102C300000BF002084F8340000BF206D10B1204692
:102C4000216D8847F8BD2068006800F4802080B1BD
:102C50002068006800F4002028B9606C10B120469C
:102C6000616C88471DE0E06BD8B12046E16B884776
:102C700017E02068006800F4807068B92068006878
:102C800020F0100021680860012084F8350000BFA2
:102C9000002084F8340000BFE06B10B12046E16BE7
:102CA0008847606D38B3606D00F00100F0B1052019
:102CB00084F835002068006820F001002168086071
:102CC00000BF0098401C0090B84200D905E0206881
:102CD000006800F001000028F3D100BF012084F853
:102CE000350000BF002084F8340000BFE06C10B154
:102CF0002046E16C884700BFA4E700000C000020DC
:102D00002DE9F0410446002500F0C2F9074614B948
:102D10000120BDE8F081606A00B100BF022084F8A4
:102D2000350000BF002084F8340000BF2068006830
:102D300020F00100216808600AE000F0A9F9C01B3A
:102D4000052805D920206065032084F83500E0E7D8
:102D50002068006800F001000028EED120680568B6
:102D600021480540D4E901010843E168084321698D
:102D7000084361690843A1690843E1690843216A7E
:102D800008430543606A042803D1D4E90B010843D2
:102D90000543206805602068456925F00705606ADD
:102DA0000543606A04280DD1A06A0543E06A48B172
:102DB0002046FFF707F928B140206065012084F81C
:102DC0003500A6E7206845612046FFF7E1F8064692
:102DD00094F85C103F208840B060002060650120BE
:102DE00084F83500002094E73F8010F02DE9F0478B
:102DF00004460D4616461F464FF00008D4F858907A
:102E000000BF94F83400012802D10220BDE8F08709
:102E1000012084F8340000BF94F83500012825D142
:102E2000022084F83500002060653B463246294682
:102E30002046FFF71CF994F85C103F208840C9F841
:102E400008002068006840F0160021680860206CC7
:102E500028B12068006840F00800216808602068F8
:102E6000006840F001002168086006E000BF002013
:102E700084F8340000BF4FF002084046C6E7000067
:102E8000F8B502460B460025002400200021E0E0B2
:102E9000012606FA01F51E6806EA0504AC4274D163
:102EA0001E7906F00306012E04D01E7906F00306F3
:102EB000022E13D190684F000326BE40B0434F004E
:102EC000DE68BE4030439060506801268E40B043BB
:102ED0001E79C6F300168E40304350601E7906F00E
:102EE0000306032E09D0D0684F000326BE40B0432E
:102EF0004F009E68BE403043D0601E7906F0030646
:102F0000022E13D1CF0802F1200656F827004E07F3
:102F1000F70E0F26BE40B0434F07FF0E1E69BE409E
:102F20003043CF0802F1200646F8270010684F0012
:102F30000326BE40B0431E7906F003064F00BE4094
:102F4000304310605E6806F44036002E1DD000BF8E
:102F500000260096414E366846F480463F4F3E605C
:102F60003E46366806F48046009600BF00BF3C4EE1
:102F70008F0856F827008E07370F0F26BE40B04344
:102F8000384EB24202D100262EE061E0364EB24207
:102F900001D1012628E0354EB24201D1022623E0BC
:102FA000334EB24201D103261EE0324EB24201D16D
:102FB000042619E0304EB24201D1052614E02F4E0E
:102FC000B24201D106260FE02D4EB24201D10726B2
:102FD0000AE02C4EB24201D1082605E02A4EB24248
:102FE00001D1092600E00A268F073F0FBE4030437B
:102FF0001B4E8F0846F82700244E3068A0435E68B9
:1030000006F4801606B12043204E3060361D30682D
:10301000A0435E6806F4001606B120431B4E361D21
:1030200030601A4E361F3068A0435E6806F40036E2
:1030300006B12043154E361F3060361F3068A0435E
:103040005E6806F4803606B12043104E083E3060BC
:10305000491C1029FFF41CAFF8BD000044380240A1
:10306000083801400000024000040240000802400D
:10307000000C024000100240001402400018024000
:10308000001C02400020024000240240083C014095
:1030900001480068704700000000002003480068F5
:1030A000034909780844014908607047000000207E
:1030B0000800002010B50D48006840F400700B496E
:1030C00008600846006840F48060086008460068B0
:1030D00040F480700860032000F0A6F80F2000F094
:1030E00007F800F02BF8002010BD0000003C024063
:1030F00070B504460E4800784FF47A71B1FBF0F0D9
:103100000C490968B1FBF0F5284600F075FC08B1E0
:10311000012070BD102C07D200222146501E00F065
:1031200045F80548046001E00120F2E70020F0E7DF
:10313000080000200C0000200400002008B500BF9B
:10314000002000900E48006840F480400C49086060
:103150000846006800F48040009000BF00BF00BF38
:1031600000200090081F006840F08050091F086090
:103170000846006800F08050009000BF00BF08BD06
:10318000443802400146084600280DDB00BF00BF5E
:1031900000F01F0301229A4043099B0003F1E02342
:1031A000C3F8002100BF00BF00BF70472DE9F05FEA
:1031B00080460D461646002702F094FC0746394625
:1031C0002A46334601F00700C0F1070ABAF1040F9E
:1031D00002D94FF0040A01E0C0F1070AD14600F11C
:1031E000040ABAF1070F02D24FF0000A01E0A0F181
:1031F000030AD4464FF0010A0AFA09FAAAF1010AB1
:103200000AEA020A0AFA0CFA4FF0010B0BFA0CFB5D
:10321000ABF1010B0BEA030B4AEA0B0421464046D3
:1032200002F068FCBDE8F09F00BF00F00702064B0B
:1032300019684FF6FF031940044B0B4343EA022180
:10324000014B196000BF70470CED00E00000FA056B
:1032500038B5002400BF002000901D48006840F0F1
:1032600080501B4908600846006800F080500090BC
:1032700000BF00BF012017490864FFF709FF04469B
:1032800007E0FFF705FF001BB0F57A7F01D90320A7
:1032900038BD1148406800F48030B0F5803FF0D16F
:1032A00001200C494864FFF7F3FE044607E0FFF7EE
:1032B000EFFE001BB0F57A7F01D90320E8E706484E
:1032C000406800F40030B0F5003FF0D10020DFE7A7
:1032D0004038024000000E420070004070B50446C5
:1032E0000D460CB9012070BD5848006800F00F0071
:1032F000A84209D255490D700846006800F00F0039
:10330000A84201D00120EEE7207800F00200022858
:103310001DD1207800F00400042805D14C48006835
:1033200040F4E0504A490860207800F0080008287E
:1033300005D14748006840F460404549086044486A
:10334000006820F0F000A168084341490860207837
:1033500000F00100A8B36068012807D13C48083894
:103360000068C0F34040B8B90120BCE7606802289B
:1033700002D06068032807D1354808380068C0F3D8
:10338000406048B90120AEE7314808380068C0F312
:10339000400008B90120A6E72D48006820F003008E
:1033A000616808432A490860FFF772FE064609E093
:1033B000FFF76EFE801B41F28831884202D903205C
:1033C00091E707E02248006800F00C006168B0EB6C
:1033D000810FEDD11D48006800F00F00A84209D907
:1033E0001A490D700846006800F00F00A84201D08D
:1033F000012078E7207800F00400042807D1144861
:10340000006820F4E050E168084311490860207822
:1034100000F00800082808D10D48006820F460403A
:10342000216940EAC1000A49086000F03FF80849F4
:103430000968C1F30311074A515CC8400649086096
:1034400006480068FFF754FE00204CE7003C0240AD
:1034500008380240B26400080C000020040000207C
:1034600001480068704700000C00002000B5FFF71D
:10347000F7FF04490968C1F38221034A515CC8403F
:1034800000BD000008380240C264000800B5FFF724
:10349000E7FF04490968C1F34231034A515CC8405F
:1034A00000BD000008380240C26400082DE9F04762
:1034B000002400250026A1462548006800F00C00E5
:1034C00020B1042805D008283AD105E0DFF884901F
:1034D00039E0DFF8849036E01D48001F006800F0F6
:1034E0003F041B48001F006800F4800078B11A48B0
:1034F0001749091F0968C1F38811A0FB0170014633
:10350000224600233846FCF7CFFE05460EE0114860
:103510000F49091F0968C1F38811A0FB017001461A
:10352000224600233846FCF7BFFE05460848001F28
:103530000068C0F30140401C4600B5FBF6F902E00C
:10354000DFF8109000BF00BF4846BDE8F0870000DC
:10355000083802400024F400001BB700F8B5044608
:103560000CB90120F8BD207800F00100002874D0CB
:10357000F948006800F00C0004280DD0F6480068F7
:1035800000F00C00082813D1F348001F006800F475
:103590008000B0F5800F0BD1EF4808380068C0F309
:1035A0004040002859D06068002856D10120D9E752
:1035B00000BF6068B0F5803F08D1E7480838006870
:1035C00040F48030E449083908601EE06068B0F5D6
:1035D000A02F0DD1E0480838006840F48020DE4973
:1035E000083908600846006840F4803008600CE044
:1035F000D9480838006820F48030D7490839086075
:103600000846006820F48020086000BF606890B120
:10361000FFF73EFD054606E0FFF73AFD401B642834
:1036200001D903209EE7CC4808380068C0F3404029
:103630000028F1D011E0FFF72BFD054606E0FFF76B
:1036400027FD401B642801D903208BE7C2480838B6
:103650000068C0F340400028F1D1207800F002005B
:1036600002285FD1BC48006800F00C0058B1BA488D
:10367000006800F00C0008281CD1B748001F006843
:1036800000F48000B0B9B44808380068C0F34000C6
:1036900020B1E068012801D0012063E7AE48083876
:1036A000006820F0F800216940EAC100AA49083901
:1036B000086037E0E06800B30120A8490860FFF720
:1036C000E7FC054606E0FFF7E3FC401B022801D9B2
:1036D000032047E7A04808380068C0F340000028EE
:1036E000F1D09D480838006820F0F800216940EAD0
:1036F000C10099490839086014E000209749086022
:10370000FFF7C6FC054606E0FFF7C2FC401B022897
:1037100001D9032026E7904808380068C0F340002C
:103720000028F1D1207800F0080008282CD1606929
:10373000A8B101208A490860FFF7AAFC054606E007
:10374000FFF7A6FC401B022801D903200AE78248A4
:103750006C300068C0F340000028F1D014E0002075
:103760007F490860FFF794FC054606E0FFF790FCF0
:10377000401B022801D90320F4E677486C3000682A
:10378000C0F340000028F1D1207800F004000428A4
:1037900070D1002770483830006800F0805090B930
:1037A00000BF002000906C483830006840F0805026
:1037B0006949383108600846006800F08050009080
:1037C00000BF00BF01276748006800F48070B0B9EF
:1037D0006448006840F4807062490860FFF758FC54
:1037E000054606E0FFF754FC401B022801D90320E0
:1037F000B8E65C48006800F480700028F2D000BF92
:10380000A068012808D154486830006840F00100E1
:103810005149683108601DE0A06805280DD14E4867
:103820006830006840F004004B4968310860084681
:10383000006840F0010008600CE04748683000680C
:1038400020F001004449683108600846006820F013
:103850000400086000BFA068A8B1FFF719FC054686
:1038600009E0FFF715FC401B41F28831884202D97C
:10387000032077E626E0384868300068C0F340004F
:103880000028EED013E0FFF703FC054608E0FFF741
:10389000FFFB401B41F28831884201D9032061E6D9
:1038A0002D4868300068C0F340000028EFD1012F98
:1038B00007D129483830006820F080502649383137
:1038C000086000BFA069002845D02348006800F0C8
:1038D0000C0008285DD0A069022845D100201F49AE
:1038E0000866FFF7D5FB054606E0FFF7D1FB401B56
:1038F000022801D9032035E6174808380068C0F3CC
:1039000040600028F1D1D4E907010843616A40EA28
:1039100081110122A06AC2EB500041EA00412C2033
:10392000005D41EA00600C49091F086001200B4955
:103930000866FFF7ADFB054606E0FFF7A9FB401B55
:10394000022801D903200DE6034808380068C0F3B7
:1039500040600028F1D049E00838024000004742AA
:10396000800E474200700040002021490866FFF7A2
:103970008FFB054606E0FFF78BFB401B022801D9B1
:103980000320EFE51B480068C0F340600028F2D137
:103990002CE0A069012800D1E4E51648001D066866
:1039A000A069012820D006F48001E06981421BD182
:1039B00006F03F01206A814216D147F6C0703040C0
:1039C000616AB0EB811F0FD106F440310122A06A79
:1039D000C2EB5000B1EB004F06D106F070612C2015
:1039E000005DB1EB006F01D00120BBE50020B9E51F
:1039F000000047420038024070B504462546681E64
:103A0000B0F1807F01D301200FE0681E4FF0E0216C
:103A100048610F214FF0FF3002F06CF800204FF0AA
:103A2000E021886107200861002070BD7047704761
:103A300030B502460B4600BF92F83C00012801D188
:103A4000022030BD012082F83C0000BF022082F835
:103A50003D00106844681068816824F0700418689C
:103A6000044310684460184D1068A8421BD01068C9
:103A7000B0F1804F17D0154D1068A84213D0144DE7
:103A80001068A8420FD0134D1068A8420BD0124DF9
:103A90001068A84207D0114D1068A84203D0104DFD
:103AA0001068A84205D121F08001586801431068D0
:103AB0008160012082F83D0000BF002082F83C00B8
:103AC00000BF00BFBDE7000000000140000400404F
:103AD00000080040000C004000040140004001408C
:103AE0000018004010B504460CB9012010BD94F830
:103AF0003D0028B9002084F83C00204600F026F85C
:103B0000022084F83D00211D206801F041FA0120C7
:103B100084F8460000BF84F83E0001213F20015593
:103B2000402001554120015500BF00BF012084F80D
:103B3000420043200155442001554520015500BF56
:103B4000012084F83D000020D0E7000038B504468D
:103B50000E492068884217D100BF002000900C4811
:103B6000006840F010000A4908600846006800F04C
:103B70001000009000BF00BF002211463620FFF762
:103B800015FB3620FFF7FEFA38BD0000001000409C
:103B900040380240014691F83D00012801D0012043
:103BA0007047022081F83D000868C06840F00100BD
:103BB0000B68D8601A4B086898421BD00868B0F1AF
:103BC000804F17D0174B0868984213D0164B0868DF
:103BD00098420FD0154B086898420BD0144B0868D8
:103BE000984207D0134B0868984203D0124B0868DC
:103BF00098420CD10868806800F00702062A0CD0B1
:103C00000868006840F001000B68186005E008686B
:103C1000006840F001000B6818600020C0E7000059
:103C2000000001400004004000080040000C00407B
:103C3000000401400040014000180040704770B58A
:103C400004462068C5682068066906F0020002285C
:103C500019D105F00200022815D1401F2168086122
:103C6000012020772068806900F0030018B1204609
:103C7000FFF7E4FF05E0204600F097F8204600F04B
:103C800095F80020207706F00400042819D105F0EB
:103C90000400042815D1C043216808610220207760
:103CA0002068806900F4407018B12046FFF7C6FF15
:103CB00005E0204600F079F8204600F077F8002073
:103CC000207706F00800082819D105F00800082818
:103CD00015D1C04321680861042020772068C0699D
:103CE00000F0030018B12046FFF7A8FF05E02046CA
:103CF00000F05BF8204600F059F80020207706F02D
:103D00001000102819D105F01000102815D1C0435B
:103D100021680861082020772068C06900F440709D
:103D200018B12046FFF78AFF05E0204600F03DF875
:103D3000204600F03BF80020207706F0010048B153
:103D400005F0010030B16FF00100216808612046E4
:103D500000F02EF806F08000802809D105F08000E0
:103D6000802805D1C043216808612046FFF75EFE28
:103D700006F04000402809D105F04000402805D158
:103D8000C04321680861204600F076F806F0200064
:103D9000202809D105F02000202805D1C043216842
:103DA00008612046FFF743FE70BD70477047000072
:103DB00030B587B005462A492868884201D007B047
:103DC00030BDFDF771FFFEF70DF8264800F066FEE6
:103DD0002448643000F062FE2248C83000F05EFEE5
:103DE000214800F05BFE00F07FFE2048007810B113
:103DF00001F02EF82FE01E480078042814D104AA00
:103E000005A906A8FDF7C0FE01AA02A903A8FDF7AF
:103E1000D1FEDFED181A9DED041ADDED050A9DEDCA
:103E2000060A02F061F816E01148007800EBC001C4
:103E300001EB00100B4901EB800494ED081AF0EE41
:103E4000410A94ED061AB0EE410ADFED0A1A9FED21
:103E5000091A02F049F801F00BF900BFAFE70000C2
:103E600000100040CC050020F806002031000020A2
:103E700089000020000000007047F8B504460D4698
:103E8000164694F8420020282DD105B10EB9012024
:103E9000F8BD012020630020606332462946204699
:103EA00001F0DAFB0746206B012819D100BF002082
:103EB000009020680068009020684068009000BF73
:103EC00000BF00BF00BF21680C3151E8001F41F066
:103ED000100021680C3141E80002002AF3D100E013
:103EE00001273846D4E70220D2E7000070B5044627
:103EF0000D461349206888420ED11248C06820B18F
:103F000010494868CA68294690470E4802894168A6
:103F10002046FFF7B2FF11E00B49206888420DD11F
:103F20000A48C06820B109494868CA6829469047CC
:103F30000648028941682046FFF79FFF70BD0000D8
:103F4000004400406404002000100140540400209C
:103F500010B504462068006820684068002060644E
:103F60000F49206888420BD10E480068401C0D495B
:103F700008600D48028941682046FFF77EFF0EE089
:103F80000A49206888420AD109480068401C08494B
:103F90000860084801224168204600F0E1FA10BD9F
:103FA000004400407800002064040020001001401C
:103FB00074000020540400202DE9F84F04462068C6
:103FC00005682068C668206847694FF00009CA463E
:103FD00005F00F09B9F1000F0AD105F0200038B142
:103FE00006F0200020B1204601F0A1F9BDE8F88FCD
:103FF000B9F1000F7CD007F0010018B906F49070F9
:10400000002875D005F0010030B106F4807018B1B9
:10401000606C40F00100606405F0040030B107F00E
:10402000010018B1606C40F00200606405F002000D
:1040300030B107F0010018B1606C40F0040060641A
:1040400005F0080048B106F0200010B907F00100A3
:1040500018B1606C40F008006064606C002846D0C5
:1040600005F0200028B106F0200010B1204601F034
:104070005EF920684069C0F3801A606C00F00800A7
:1040800010B9BAF1000F2DD0204601F0F7F82068E2
:10409000406900F04000402820D100BF00BF2168E7
:1040A000143151E8001F21F040002168143141E82B
:1040B0000002002AF3D100BFE06B50B17F48E16BF2
:1040C0000865E06BFEF7E7FC88B1E06B016D88479F
:1040D0000DE02046FFF73CFF09E009E02046FFF72E
:1040E00037FF04E02046FFF733FF002060647DE7E0
:1040F000206B012878D105F01000002874D006F05C
:1041000010000028FAD000BF00200090206800684E
:10411000009020684068009000BF00BF20684069A0
:1041200000F04000402870D1E06B006840681FFA42
:1041300080F8B8F1000F58D0A08D404555DDA4F8A7
:104140002E80E06BC069B0F5807F43D000BF00BF18
:1041500021680C3151E8001F21F4807021680C3176
:1041600041E80002002AF3D100BF00BF00BF216870
:10417000143151E8001F21F001002168143141E899
:104180000002002AF3D100BF00BF00BF2168143134
:1041900051E8001F21F040002168143141E800027D
:1041A000002AF3D100BF202084F8420000202063C1
:1041B00000BF00BF21680C3151E8001F21F0100042
:1041C00021680C3141E80002002AF3D100BFE06B06
:1041D000FEF70BFC02206063A08DE28D801A81B295
:1041E0002046FFF783FE0EE052E0A08D40450AD145
:1041F000E06BC069B0F5807F05D102206063A18DBE
:104200002046FFF773FEF1E6FFE7A08DE18D401A2F
:104210001FFA80F8E08DD0B3B8F1000F37D000BF9F
:1042200000BF21680C3151E8001F21F49070216813
:104230000C3141E80002002AF3D100BF00BF00BFEB
:104240002168143151E8001F21F001002168143168
:1042500041E80002002AF3D100BF202084F8420088
:104260000020206300BF00BF21680C3151E8001F0F
:1042700021F0100021680C3141E80002002AF3D13E
:1042800000BF0220606341462046FFF72FFEADE6E7
:1042900005F0800030B106F0800018B1204601F032
:1042A00067FAA3E605F0400030B106F0400018B10F
:1042B000204601F019F899E600BF97E6DD500008A6
:1042C00010B504460CB9012010BDA06900B100E092
:1042D00000BF94F8410028B9002084F8400020462F
:1042E00000F02AF8242084F841002068C06820F4F7
:1042F00000502168C860204601F098F820680069E5
:1043000020F49040216808612068406920F02A006C
:10431000216848612068C06840F400502168C86086
:1043200000206064202084F8410084F842000020CE
:10433000606300BFC8E7000010B586B004461421D2
:1043400001A8FCF7ACF87B492068884275D100BF12
:10435000002000907848006840F01000764908601E
:104360000846006800F01000009000BF00BF00BFCA
:104370000020009070481438006840F002006E4938
:10438000143908600846006800F00200009000BF81
:1043900000BFC02001900220029000200390032063
:1043A00004900720059001A96448FEF769FD644860
:1043B000644908604FF000604860002161488160F6
:1043C000C1604FF480610161002141618161C1617F
:1043D00001624162FEF794FC08B1FDF75FFE00BF89
:1043E0005848E063846300BF5548783056490860F8
:1043F0004FF0006048604021534881600021C16057
:104400004FF480610161002141618161C1610162FC
:104410004162FEF775FC08B1FDF740FE00BF4A4857
:10442000A063846300BF002211462520FEF7BEFE74
:104430002520FEF7A7FE7AE0FFE74449206888427E
:1044400075D100BF002000903B48001F006840F479
:1044500000303949091F08600846006800F4003040
:10446000009000BF00BF00BF002000903248143809
:10447000006840F0080030491439086008460068B8
:1044800000F00800009000BF00BF602001900220F3
:10449000029000200390032004900720059001A9BA
:1044A0002B48FEF7EDFC2B482B4908604FF00060CD
:1044B0004860002128488160C1604FF4806101613B
:1044C000002141618161C16101624162FEF718FC16
:1044D00008B1FDF7E3FD00BF1F48E063846300BF40
:1044E0001C4818301D4908604FF0006048604021AA
:1044F0001A4881600021C1604FF480610161002190
:1045000041618161C16101624162FEF7F9FB08B15D
:10451000FDF7C4FD00BF1148A063846300BF002203
:1045200011462620FEF742FE2620FEF72BFE06B09F
:1045300010BD000000100140443802400004024059
:1045400040640240F001002050020020004400407E
:10455000000C024088600240B002002010030020DE
:1045600070B504460D46164694F8420020280BD13B
:1045700005B10EB9012070BD0020206332462946E6
:10458000204601F0D5F8F6E70220F4E770B50546BD
:104590003A492868884200D070BD394804783948C3
:1045A0000470394839490978445438480078401C27
:1045B0003649087008460078082801DB002008709A
:1045C00033480078401C324908703248006802289D
:1045D00002D202202F4908600F2C13D12C480078FA
:1045E0002D49088000202A4908702C4804700120B9
:1045F0002B49087027480068042838D20420254930
:10460000086034E02648007800282BDD2348244940
:104610000978445422480078401C21490870084613
:104620000078192823DB002008701C48007E98B908
:104630001A4800F091FBFEF72BFD1A4908601A4852
:104640000068401C184908601248006805280ED20E
:104650000520104908600AE014480068401C13490E
:10466000086004E011480068401C104908600122FD
:1046700003490F48FFF774FF00BF8DE700100140AA
:1046800032000020300000202800002033000020ED
:10469000340000201400002020000020900300209F
:1046A0003500002024000020180000201C000020FD
:1046B0006001002070470000F7B50446154694F8E5
:1046C000410020283ED1019800B10DB90120FEBD66
:1046D00001982062A584E58400206064212084F88C
:1046E00041001948A16BC8631848A16B08641848B9
:1046F000A16BC8640020A16B086501AE23681A1D78
:1047000031682B46A06BFEF771FB30B1102060645E
:10471000202084F841000120D9E76FF04000216893
:10472000086000BF00BF2168143151E8001F41F04C
:1047300080002168143141E80002002AF3D100BF53
:104740000020C4E70220C2E7175200086F52000899
:10475000EF500008034A0168914202D10121024A48
:10476000117070470044004088000020704700BF6F
:10477000FEE7000088420EDB421A00EE902AB8EEF7
:10478000E01A40F21372521A00EE902AF8EEE00A94
:1047900081EE200A0CE0421A00EE902AB8EEE01AF0
:1047A000A1F1AC0200EE902AF8EEE00A81EE200AB8
:1047B000F7EE000AB4EEE00AF1EE10FA03DDF7EED0
:1047C000000AB0EE600AFFEE000AB4EEE00AF1EE75
:1047D00010FA03D2FFEE000AB0EE600ADFED090A1C
:1047E000B4EEE00AF1EE10FA0AD2DFED070AB4EEF9
:1047F000E00AF1EE10FA03DDDFED040AB0EE600A24
:10480000704700008FC2F53C8FC2F5BC000000006D
:1048100010B50E480E4908600920486000210C4878
:104820008160C1604FF48031016109014161002163
:1048300001760121417600218176C17601774177A9
:10484000FDF756FF08B1FDF729FC10BD00640040DC
:10485000F000002008B500BF002000901E4800684E
:1048600040F400101C4908600846006800F400107D
:10487000009000BF00BF00BF002000900846006805
:1048800040F4800008600846006800F48000009052
:1048900000BF00BF002211461020FEF787FC102049
:1048A000FEF770FC002211461120FEF77FFC11205C
:1048B000FEF768FC002211463A20FEF777FC3A200A
:1048C000FEF760FC002211464620FEF76FFC4620F2
:1048D000FEF758FC08BD00003038024008B500BFA4
:1048E000002000901D48006840F001001B4908604E
:1048F0000846006800F00100009000BF00BF00BF44
:10490000002000900846006840F002000860084659
:10491000006800F00200009000BF00BF00BF002050
:1049200000900846006840F00800086008460068EB
:1049300000F00800009000BF00BF00BF0020009002
:104940000846006840F0800008600846006800F0F3
:104950008000009000BF00BF08BD0000303802405A
:104960001CB50020009001900E480F49086040F2ED
:10497000E730486000210C4881605921C160002166
:104980008161FFF7AFF808B1FDF788FB00200090C8
:10499000019069460448FFF74BF808B1FDF77EFB2C
:1049A0001CBD0000001000401801002010B50C488C
:1049B0000C4908600C48486000210A4881604FF4A7
:1049C0000051C160C91001610C2141610021816168
:1049D000C161FFF775FC08B1FDF760FB10BD000079
:1049E0000010014060010020A086010010B50B48B6
:1049F0000B4908604FF4E1204860002108488160BD
:104A0000C16001610C21416100218161C161FFF739
:104A100057FC08B1FDF742FB10BD00000044004008
:104A2000A801002000BFFEE710B500242DE004EB34
:104A3000C40101EB0411164A02EB810101F11800D7
:104A400048221449FBF7F9FC04EBC40101EB041103
:104A50000F4A02EB810101F1180000F077F89FED99
:104A60000E0A04EBC40000EB0410094901EB8000BE
:104A700080ED050A002004EBC40101EB0411044A97
:104A800002EB81010866601CC4B2042CCFDB10BDB0
:104A9000CC050020CC6400080000000010B50446DE
:104AA00094ED050A84ED060AB4F9020000EE100A3E
:104AB000B8EEC00ADFED0A0A20EE200ADFED090A8F
:104AC00080EE201A84ED081A04F1180000F06EF848
:104AD00094ED0A0ABDEEC00A84ED180A10BD00006C
:104AE0005077D63D27A0994100201AE000EBC00185
:104AF00001EB00110C4A02EB8101B1F86010C1F327
:104B000007210A4B03F8101000EBC00101EB001164
:104B100002EB810191F860204100491C5A54411C6C
:104B2000C8B20428E2DB7047CC050020400000201A
:104B3000044880ED050AC0ED1E0A80ED371AC0ED6D
:104B4000501A7047CC05002000BFFEE79FED160A03
:104B500080ED000A9FED140A80ED010A9FED120A14
:104B600080ED020A9FED100A80ED030A9FED0E0A08
:104B700080ED040A9FED0C0A80ED090A9FED0A0AF8
:104B800080ED0A0A9FED080A80ED0B0A9FED060AE8
:104B900080ED0C0A9FED040A80ED0D0A9FED020ADC
:104BA00080ED0E0A704700000000000090ED090A39
:104BB00080ED0A0A90ED000AD0ED020A30EE600A9C
:104BC00080ED090A90ED050AD0ED090A20EE200AD1
:104BD00080ED0B0A90ED060AB5EEC00AF1EE10FA70
:104BE0000ED090ED060AD0ED090A60EE200A90ED95
:104BF0000C0A9FED561A00EE810A80ED0C0A03E0C4
:104C00009FED530A80ED0C0A90ED0C0AD0ED0F0ACF
:104C1000B4EEE00AF1EE10FA03DD90ED0F0A80ED3C
:104C20000C0A90ED0C0AD0ED100AB4EEE00AF1EE99
:104C300010FA03D290ED100A80ED0C0A90ED020AF2
:104C4000D0ED030A30EE600AD0ED070AF1EE600AFB
:104C500020EE200A80ED0D0A90ED000AD0ED010A49
:104C600030EE600AD0ED080A20EE200A80ED0E0A30
:104C700090ED0B0AD0ED0C0A30EE200AD0ED0D0AB3
:104C800030EE200AD0ED0E0A30EE200A80ED040A44
:104C900090ED020AF6EE000AB4EEE00AF1EE10FA28
:104CA00007DD90ED040AD0ED110A30EE200A80ED08
:104CB000040A90ED020AFEEE000AB4EEE00AF1EEFC
:104CC00010FA07D290ED040AD0ED110A30EE600A16
:104CD00080ED040A90ED040AD0ED0F0AB4EEE00A6C
:104CE000F1EE10FA0FDD90ED040AD0ED0F0A30EE70
:104CF000600AD0ED0C0A30EEC00A80ED0C0A90ED8F
:104D00000F0A80ED040A90ED040AD0ED100AB4EE0B
:104D1000E00AF1EE10FA0FD290ED040AD0ED100A7D
:104D200030EE600AD0ED0C0A30EEC00A80ED0C0ABD
:104D300090ED100A80ED040A90ED020A80ED030A5E
:104D400090ED000A80ED010A704700006F12833A6F
:104D5000000000007047704770B5C57DC5F3800541
:104D6000154E3570C57DC5F3C005144E3570002154
:104D70001EE001EB410505EBC105C5F3C70201EBE0
:104D8000410505EBC10505F00703551C465D951C63
:104D9000455D46EA0526D51C455D46EA054424FAEC
:104DA00003F5C5F30A05064E26F811504D1CE9B26D
:104DB0001029DEDB70BD0000100000201100002073
:104DC0007003002010B50F48006800680D480068A7
:104DD00040680C480C4908600C4848600120088174
:104DE00000200B490870012208490648FFF7B8FB6C
:104DF00018B901200749086002E0652005490860EC
:104E000010BD00006001002054040020320000208A
:104E1000350000201400002010B50A48006808B9C9
:104E2000002010BD0848007808B10020F9E7FEF71F
:104E30002FF906490968401A642801D90020F0E7D3
:104E40000120EEE7180000201100002024000020BF
:104E500010B590B012480078401C114908700846FF
:104E600000780A2801DA10B010BD00200C49087043
:104E700000240DE00B4830F8140000EE100AB8EEE4
:104E8000400A684600EB840080ED000A601CC4B252
:104E9000102CEFDB1021684600F0FCFF00BFE2E7BA
:104EA000360000207003002010B5FEF7F7F810BDA3
:104EB00000B593B0302107A8FBF7F1FA142102A83E
:104EC000FBF7EDFA00BF002001902648006840F093
:104ED0008050244908600846006800F08050019026
:104EE00000BF00BF00BF002001901F48006840F4D1
:104EF00040401D4908600846006800F440400190A9
:104F000000BF00BF012007900004089002200D9010
:104F100041050E9106210F91B421109102211191AA
:104F20000421129107A8FEF719FB08B1FDF7B6F8A6
:104F3000FEF78EF908B1FDF7B1F80F2002900220BC
:104F40000390002004904FF4A05005904FF480503F
:104F50000690052102A8FEF7C1F908B1FDF79EF8F9
:104F600013B000BD403802400070004003480068A4
:104F700040F47000014908607047000088ED00E0CF
:104F800010B50248FEF75BFE10BD000018010020BE
:104F900010B502682B4B98420ED0B0F1804F0BD069
:104FA000294B984208D0294B984205D0284B98426B
:104FB00002D0284B984203D122F070024B681A436A
:104FC000204B984220D0B0F1804F1DD01E4B98420C
:104FD0001AD01E4B984217D01D4B984214D01D4B2F
:104FE000984211D01C4B98420ED01C4B98420BD0CB
:104FF0001B4B984208D01B4B984205D01A4B984245
:1050000002D01A4B984203D122F44072CB681A4363
:1050100022F080034C6943EA04028B68C3620B6888
:105020008362084B984202D00A4B984201D10B6927
:105030000363036843F004030360012343610260D8
:1050400010BD0000000001400004004000080040C6
:10505000000C0040000401400040014000440140B9
:105060000048014000180040001C004000200040A3
:1050700010B514480068401C124908600823124A01
:1050800040F2FF111148FCF753FD0823104A990123
:105090000E48FCF74DFD08230E4A40F2FF210B4855
:1050A000FCF746FD07480068092809D1002005499A
:1050B00008600823084A4FF408710448FCF738FDDB
:1050C00010BD00007000002038000020F00000201B
:1050D00040000020480000206800002070B5044611
:1050E000A56B0020E8852846FEF732FF70BD70B53D
:1050F00006460025B46B20684069C0F3C01594F8DB
:105100004100212805D125B10020E084204600F08F
:10511000FBF820684069C0F3801594F8420022280B
:1051200005D125B10020E085204600F0A7F8606C8D
:1051300040F0100060642046FEF70AFF70BD70B5B5
:105140000546AC6B2868006800F48070002842D1E6
:10515000E08500BF00BF21680C3151E8001F21F439
:10516000807021680C3141E80002002AF3D100BFB1
:1051700000BF00BF2168143151E8001F21F0010079
:105180002168143141E80002002AF3D100BF00BFBA
:1051900000BF2168143151E8001F21F04000216850
:1051A000143141E80002002AF3D100BF202084F826
:1051B0004200206B01280ED100BF00BF21680C31D6
:1051C00051E8001F21F0100021680C3141E8000275
:1051D000002AF3D100BF00206063206B012804D1B6
:1051E000A18D2046FEF782FE02E02046FFF7CEF9B1
:1051F00070BD70B50546AC6B01206063206B012863
:1052000005D1A08D41082046FEF770FE02E0204641
:10521000FFF750FA70BD70B50546AC6B28680068A2
:1052200000F48070F8B90020E08400BF00BF21685E
:10523000143151E8001F21F080002168143141E849
:105240000002002AF3D100BF00BF00BF21680C316B
:1052500051E8001F41F0400021680C3141E8000294
:10526000002AF3D102E02046FFF774FA70BD70B552
:105270000446A56B2846FFF779FA70BD00BF00BF52
:1052800002680C3252E8002F22F4907102680C324E
:1052900042E80013002BF3D100BF00BF00BF02683B
:1052A000143252E8002F22F001010268143242E861
:1052B0000013002BF3D100BF016B01290ED100BFF9
:1052C00000BF02680C3252E8002F22F01001026881
:1052D0000C3242E80013002BF3D100BF202180F8EC
:1052E000421000210163704710B504462068C06871
:1052F00020F040002168C860202084F8410020464A
:10530000FFF728FA002010BD00BF00BF02680C3272
:1053100052E8002F22F0C00102680C3242E800136C
:10532000002BF3D100BF202180F841107047F8B561
:1053300004460025002694F84200222873D1A06874
:10534000B0F5805F0BD1206948B9A66A2068406833
:10535000C0F308003080A06A801CA06214E0A56A37
:10536000A068B0F5805F03D0A06828B9206918B99B
:1053700020684068287004E02068406800F07F00E2
:105380002870A06A401CA062E08D401E80B2E085BB
:10539000002846D12068C06820F020002168C8603D
:1053A0002068C06820F480702168C8602068406967
:1053B00020F0010021684861202084F8420000208C
:1053C0006063206B012826D10020206300BF00BF4E
:1053D00021680C3151E8001F21F0100021680C31C8
:1053E00041E80002002AF3D100BF2068006800F005
:1053F000100010280AD100BF00200090206800682B
:10540000009020684068009000BF00BFA18D20463A
:10541000FEF76CFD02E02046FFF7B8F80020F8BD6B
:1054200001E00020FBE70220F9E700002DE9F84F3A
:1054300004462068006920F44050E1680843216870
:1054400008612169A068084361690843E16908436C
:1054500000902068C06849F20C61884300990843B5
:105460002168C8602068406920F44070A169084341
:105470002168486176492068884203D075492068D0
:10548000884203D1FEF702F8814602E0FDF7EEFF05
:105490008146E069B0F5004F6CD102206168A0FB45
:1054A000015003461920A9FB007001462A463846E0
:1054B000FAF7FAFE6421B0FBF1F04FEA001A02207D
:1054C0006168A0FB01510B461920A9FB00712A4617
:1054D0003846FAF7E9FE834602206168A0FB0150D6
:1054E00003461920A9FB00712A463846FAF7DCFE6C
:1054F0006421B0FBF1F000EBC00101EB0010ABEB5D
:105500008000322101EBC0006421B0FBF1F000F01B
:10551000F8000AEB400A02206168A0FB0150034634
:105520001920A9FB007001462A463846FAF7BCFE4E
:10553000834602206168A0FB015003461920A9FBA5
:1055400000712A463846FAF7AFFE6421B0FBF1F04D
:1055500000EBC00101EB0010ABEB8000322101EB4E
:10556000C0006421B0FBF1F000F007005044216856
:1055700088606AE004206168A0FB0150034619209E
:10558000A9FB007001462A463846FAF78DFE82468E
:1055900004206168A0FB015003461920A9FB00709C
:1055A00001462A463846FAF77FFE6421B0FBF1F047
:1055B00000EBC00101EB0010AAEB8000322101EBEF
:1055C00000106421B0FBF1F000F0F00A04206168E3
:1055D000A0FB017003461920A9FB00513A4628465A
:1055E000FAF762FE6421B0FBF1F00AEB001A042026
:1055F0006168A0FB01510B461920A9FB00712A46E6
:105600003846FAF751FE834604206168A0FB01503A
:1056100003461920A9FB007001462A463846FAF7CE
:1056200043FE6421B0FBF1F000EBC00101EB001080
:10563000ABEB8000322101EB00106421B0FBF1F0F4
:1056400000F00F00504421688860BDE8F88F00002A
:10565000001001400014014077B581B004461546A2
:105660000298A062A58500206064222084F8420090
:105670002C48E16BC8632C48E16B08642B48E16B54
:10568000C8640020E16B086502AE32682368191D0A
:105690002B46E06BFDF7AAFB38B110206064202098
:1056A00084F84200012004B070BD00BF00200090CB
:1056B00020680068009020684068009000BF00BF2C
:1056C000206970B100BF00BF21680C3151E8001F94
:1056D00041F4807021680C3141E80002002AF3D1C6
:1056E00000BF00BF00BF2168143151E8001F41F026
:1056F00001002168143141E80002002AF3D100BF03
:1057000000BF00BF2168143151E8001F41F0400084
:105710002168143141E80002002AF3D100BF0020C3
:10572000C1E700003F510008F3510008EF500008A6
:1057300010B5034699629A85DA85002058642220C4
:1057400083F84200186928B11868C06840F4807076
:105750001C68E0601868406940F001001C686061E6
:105760001868C06840F020001C68E060002010BD90
:10577000014691F84100212828D18868B0F5805F62
:105780000BD1086948B90A6A1088C0F308000B6891
:105790005860086A801C086205E00B6A581C0862A1
:1057A00018780B685860C88C401E80B2C88458B9FD
:1057B0000868C06820F080000B68D8600868C0687E
:1057C00040F040000B68D860002070470220FCE7E2
:1057D0002DE9F0432DED028B89B007468946B9F1DA
:1057E000000F04D109B0BDEC028BBDE8F0830025A9
:1057F00014E0785D0D2802D0785D0A2800D111E010
:10580000785D612805DB785D7A2802DC785D2038D8
:1058100000E0785D01A94855681C85B24D4501DA64
:105820001F2DE6D300BF002001A948559DF80400B4
:1058300058282FD100242AE09FED830A04EBC400EE
:1058400000EB0410814901EB800080ED0B0A9FED15
:105850007E0A04EBC40000EB041001EB800080ED35
:105860000C0A9FED790A04EBC40000EB041001EB75
:10587000800080ED0D0A9FED740A04EBC40000EB7C
:10588000041001EB800080ED0E0A601CC4B2042CF1
:10589000D2DBA7E79DF8040053280CD10DF10500D9
:1058A000FAF779FD6A49087008460078042801DD96
:1058B0000020087096E79DF80400452806D10DF1F8
:1058C0000500FAF768FD634908708BE79DF804004E
:1058D000432802D1FCF7C8F984E79DF804005A2850
:1058E00017D19FED590A5C4880ED000A9FED560ADA
:1058F0005A4880ED000A9FED540A594880ED000A8D
:105900009FED511ADFED500A9FED4F0AFCF75AFA4E
:1059100068E7022D00DA65E79DF804800DF10500C7
:1059200000F07AF9B0EE408AF0EE608A51EC180B84
:1059300000F03EFB0646B8F1560F05D0B8F1590FFE
:1059400002D0B8F1570F1FD1B8F1560F06D0B8F1F9
:10595000570F09D0B8F1590F09D102E03E4806604F
:1059600005E03E48066002E03D48066000BF00BF1B
:105970003B4890ED001A3948D0ED000A364890EDCA
:10598000000AFCF71FFA2DE7002458E0B8F1490F90
:105990001CD009DCB8F1420F33D0B8F1440F1ED04F
:1059A000B8F1460F48D123E0B8F14D0F3BD0B8F124
:1059B0004F0F2FD0B8F1500F3ED104EBC40000EBD5
:1059C0000410224901EB8000C66235E004EBC400FC
:1059D00000EB04101D4901EB800006632CE004EB92
:1059E000C40000EB0410194901EB8000466323E07A
:1059F00004EBC40000EB0410144901EB8000866343
:105A00001AE004EBC40000EB0410104901EB800025
:105A1000C66511E004EBC40000EB04100B4901EB78
:105A20008000466508E004EBC40000EB0410074961
:105A300001EB8000866500BF00BF601CC4B2042C6F
:105A4000A4DB00BFCEE6000000000000CC05002073
:105A500089000020310000207C0000208000002010
:105A60008400002010B50248FEF7A6FA10BD000021
:105A70006001002010B50248FEF79EFA10BD00003C
:105A8000A80100202DE9F04104460D4616461F46A8
:105A90000F492068884205D10E48456006810460A0
:105AA000C76008E00C492068884204D10B48456073
:105AB00006810460C7602068006820684068002094
:105AC0006064324629462046FEF7D7F9BDE8F081EA
:105AD00000440040640400200010014054040020F1
