:020000040800F2
:10000000080F0020550200089B4B000827400008FD
:10001000A14A0008252200082D5900080000000010
:10002000000000000000000000000000FB5000087D
:10003000A922000800000000F9500008ED53000854
:100040006F0200086F0200086F0200086F020008CC
:100050006F0200086F0200086F0200086F020008BC
:100060006F0200086F0200086F0200086F020008AC
:100070006F0200086F0200086F0200086F0200089C
:100080006F0200086F0200086F0200086F0200088C
:100090006F0200086F0200086F0200086F0200087C
:1000A0006F020008515400086F0200086F02000838
:1000B0006F0200086F0200086F0200086F0200085C
:1000C0006F0200086F0200086F0200086F0200084C
:1000D0006F0200086F020008215900086F02000833
:1000E0006F0200086F0200086F02000800F002F8BB
:1000F00000F0A0F80AA090E8000C82448344AAF122
:100100000107DA4501D100F095F8AFF2090EBAE81F
:100110000F0013F0010F18BFFB1A43F0010318473B
:10012000147B0000347B00000A4410F8014B14F0EB
:100130000F0508BF10F8015B240908BF10F8014B38
:100140006D1E05D010F8013B6D1E01F8013BF9D181
:10015000641E03D0641E01F8015BFBD19142E4D31D
:10016000704700000023002400250026103A28BF15
:1001700078C1FBD8520728BF30C148BF0B60704719
:100180006E2900F0E781702900F02983662907F0C5
:10019000D080652907F0CD80672907F0CA806129E2
:1001A00007F0C98003681B0A28BF41F08001692954
:1001B00000F09481642900F09181752900F08E810E
:1001C0006F2900F0B682782900F0F582E92900F065
:1001D0005182E42900F04E82F52900F04B82EF298C
:1001E00000F0B382F82900F0F4820368DB0928BF2D
:1001F00041F08001632901F03B80732901F04080C8
:10020000E32901F04B80F32901F050800020704772
:100210001FB501F0E3F804000020002105F0E2FF23
:10022000401C60600020002105F0F2FFE0601FBD6F
:1002300010B510BD01F0ADF81146FFF7E9FF05F06C
:1002400009FE01F08FF903B4FFF7F2FF03BC01F0E0
:1002500093F900000948804709480047FEE7FEE798
:10026000FEE7FEE7FEE7FEE7FEE7FEE7FEE7FEE766
:1002700004480549054A064B704700004F540008E2
:10028000ED00000808090020080F0020080B0020DE
:10029000080B0020B2F120030AD5C2F1200320FA96
:1002A00002F001FA03F321FA02F140EA0300704779
:1002B00021FA03F04FF00001704700001CB50C4616
:1002C000064B7B4469460090204600F05CF90446EA
:1002D0000020694600F06AF920461CBDE7020000D4
:1002E00070B5064600F094F80468054630460A22C8
:1002F000002100F043FB2C6070BD10B5431C02E0F0
:1003000010F8011B71B18107FAD14FF0013202C818
:100310008C1A8C4314EAC211F9D0C01A0A0603D011
:10032000C01E10BDC01A10BD0A0401D0801E10BD31
:100330000902FCD0401E10BD4FF0000200B513466C
:1003400094469646203922BFA0E80C50A0E80C50F5
:10035000B1F12001BFF4F7AF090728BFA0E80C50A6
:1003600048BF0CC05DF804EB890028BF40F8042B9F
:1003700008BF704748BF20F8022B11F0804F18BF0C
:1003800000F8012B704700004FF0013C50F8042B9F
:1003900051F8043B9A4221D1A2EB0C03934313EA98
:1003A000CC1317D150F8042B51F8043B9A4215D1C5
:1003B000A2EB0C03934313EACC130BD150F8042B9C
:1003C00051F8043B9A4209D1A2EB0C03934313EA80
:1003D000CC13DBD04FF00000704700BFD01A01BA39
:1003E000B1FA81F101F0180122FA01F0CB40C1F11C
:1003F0002001DBB2C0B2C01A2CFA01F3D11A91432A
:1004000011EAC311E6D1704770477047704700008A
:1004100000487047A808002070B504468569006848
:10042000C10601D5302600E02026C00707D070BDE8
:10043000D4E9012130469047206A401C20626D1E9D
:10044000F6D570BD70B5044685690078C00707D140
:1004500070BDD4E9012120209047206A401C206211
:100460006D1EF6D570BD09684A0501D540B27047CA
:10047000C905FCD500B2704709684A0501D5C0B26C
:100480007047C905FCD580B2704770B50C4605466B
:10049000012A05D02878800600D5EA69002302E009
:1004A000012305E05B1C934202D2E05C0028F9D1F5
:1004B000A869E618C01AA861286A18442862284664
:1004C000FFF7AAFF04E0D5E9012114F8010B9047DA
:1004D000B442F8D32846FFF7B5FF70BD2DE9F041CF
:1004E0000646002410687529314616A510D0FFF77E
:1004F000BAFF002802DA404213A507E031688A07F4
:1005000001D512A502E0490704D511A5012401E097
:10051000FFF7B2FF00210A2206F1240709E0B0FB31
:10052000F2FCB0FBF2F302FB1C00303078541846AA
:10053000491C0028F3D123462A463046BDE8F04145
:1005400000F0A5BA000000002D0000002B00000004
:100550002000000011680268006A530501D5087088
:100560000AE0D30501D5088006E0130603D5C217BB
:10057000C1E9000200E008600120704701694A1CDF
:1005800002610878704700B58FB0CDE901310021D4
:10059000059105497944CDE903101146684600F0FC
:1005A00029F90FB000BD0000E5FFFFFF0A6802F85F
:1005B000010B0A60704700002DE9FF5F15468A466F
:1005C0000446DFF8AC80F8440027D8E900103E4626
:1005D000CDE9001010E03AF816106A4602A800F0C3
:1005E000B8FE411C07D02178890603D5E269391885
:1005F00091420DD80744761C2078800602D5E06928
:10060000B84205DDAE42E6DB3AF816000028E2D13A
:10061000A069C01BA0612046FFF7FEFED8E90010CC
:10062000CDE90010002017E03AF818106A4602A839
:1006300000F08FFEB0F1FF3F81460BD000250DF199
:10064000080B05E0D4E901211BF8050090476D1C5B
:100650004D45F7D308F10100B0428046E4DB206A43
:10066000384420622046FFF7EDFEBDE8FF9F000002
:10067000C67400002DE9F0418046D21D22F0070229
:100680000025D2E90002F52915A614D0011E72F149
:10069000000106DA0023D0EB030063EB020211A68F
:1006A00008E0D8F800108B0701D50FA602E0490733
:1006B00001D50EA601251146002408F1240704E007
:1006C00000F0A0F930323A55641C50EA0102F7D12B
:1006D0002B46324621464046BDE8F04100F0D7B9EE
:1006E000000000002D0000002B0000002000000092
:1006F00030B4002100F1240408E002F00705D2081C
:10070000303542EA4372DB086554491C52EA03055E
:10071000F3D10468002310A2250707D5A40600D44E
:1007200021B1C46901230DA2641EC46130BC00F074
:10073000AEB910B5044621461068FFF79DFE02468B
:100740002046BDE810400023D2E7D21D22F0070169
:10075000D1E90023CCE700000000000030000000D9
:10076000F0B40D460188090502D5214C7C4402E015
:100770001F4C7C440E34002100F1240608E002F0F6
:100780000F071209E75D42EA03721B097754491CFF
:1007900052EA0307F3D102780023120704D5702D23
:1007A00006D009B1022311342246F0BC00F06FB923
:1007B00001231034F8E770B504460D462146106851
:1007C000FFF75AFE024629462046BDE87040002346
:1007D000C6E7D21D22F00703D3E90023C0E7036870
:1007E000126843F0200303600823C3610023B7E7C6
:1007F000287300002DE9F05F894604464FF0000A97
:10080000DFF874B1FB44C0F820A02046E1688847B7
:10081000002874D0252806D0D4E901219047206A09
:10082000401C2062F1E700265F462046E1688847C9
:100830002028054607DB312D05D2781910F8200C49
:1008400008B10643F1E7B00701D526F00406C4F865
:100850001CA00027C4F818A02A2D09D0284605F0AE
:10086000EDF838B304EB8708303DC8F8185019E0AC
:1008700059F8041B204604EB87029161E168884720
:10088000012F054618D1E069002820DA26F020065D
:100890001DE0D8F8180000EB800005EB4000303870
:1008A000C8F818002046E1688847054605F0C6F8F4
:1008B0000028EED1012F0AD02E2D08D12046E16864
:1008C00088477F1C0546022F46F02006C4DBA0693E
:1008D000002803DA404246F00106A061F00701D08B
:1008E00026F010066C2D0BD0682D09D04C2D39D078
:1008F0006A2D35D0742D35D07A2D33D016E038E0FE
:10090000E1682F4620468847B842054609D16C2F3A
:1009100026D04FF48060E1680643204688470546AC
:1009200004E06C2F1AD04FF4807006430DB3A5F18C
:100930004100192802D8203546F400664A46294667
:10094000204626604E46FFF71BFC80B101280BD0E5
:10095000F61D26F0070000F1080956E74020E4E7FD
:100960008020D8E70020D6E706F104094DE72846A5
:1009700052E7206ABDE8F09FB87200002DE9F04709
:1009800091460F4680460446002614F8015B2DB1BF
:1009900000F030F80068405DC007F6D12B2D02D082
:1009A0002D2D18D0641E4A463946204600F082FCA0
:1009B00027B13968A14201D1C7F800804FF0020485
:1009C00071050BD54042002803DDFFF721FD0460CF
:1009D000A007BDE8F08746F48066E4E70028F8DA6F
:1009E000FFF716FD04606FF00040F2E70048704723
:1009F000A808002010B500F0F1FC001D10BD00BFDC
:100A0000E557000030B5B0F10A024FEA900E71F1DF
:100A100000034EEA817EB0EB0E0061EB91014FEADC
:100A2000101E4EEA017E10EB0E0041EB11114FEA51
:100A3000102E4EEA016E10EB0E0041EB11214FEA31
:100A4000104E4EEA014E10EB0E0041EB11414018E2
:100A500041F100014FEAD00040EA41704FEAD10174
:100A600010EB80054FEA810444EA907444EB0104E2
:100A70006D1944EB0404521BA3414FF0000348BF1F
:100A80000A3200D530BD401C41F1000130BD2DE9D6
:100A9000F0470D4699469246044600F12408016845
:100AA000880604D5E06921F01001216000E00120F2
:100AB000A84201DD471B00E00027A1697A1902EB7B
:100AC0000900081AA0612078C00602D42046FFF76A
:100AD000A3FC002608E0D4E901211AF8060090479B
:100AE000206A401C761C20624E45F4DB2078C0064C
:100AF0000AD52046FFF790FC06E0D4E9012130201A
:100B00009047206A401C2062381EA7F10107F4DCE0
:100B100007E0D4E9012118F805009047206A401C3D
:100B20002062281EA5F10105F3DC2046FFF78AFCB0
:100B30002078000602D50220BDE8F0870120FBE7FF
:100B400070472DE9FF4F0C461E464FF0FF378BB024
:100B5000D2E90001DDF860800A908A46C1F30A55A7
:100B600005B93D46002108464FF00000BAF1000FDC
:100B700000F4400005DA00EB80004FF4400101EA88
:100B800050004FEA9059B9F1010F00DDB9460A98BB
:100B900050EA4A000ED044F61050A5F2FF35454306
:100BA0002F14B8F1000F1ED07542291E1EDDC9F1A9
:100BB00000021CE0B8F1010F4FF0000001D030211D
:100BC00003E0F24305E02154401CB042FBDB304619
:100BD0000022002121540B99C1F80880C1E90020AE
:100BE0000FB0BDE8F08FBD1B6D1CDEE74A4600DA92
:100BF000694206A800F044FC06AB93E8070003AB8B
:100C000083E8070050460A9900F0BDFC8DE8070014
:100C1000A0F500501F3800900398002D0ADD42F225
:100C20001F014A460844002303A90390684600F0C8
:100C300026FF09E0A0F500504A461F38002303A90B
:100C40000390684600F030FF8DE807000004000CB8
:100C500003D04FF0FF30410800E01046B8F1000F1C
:100C600003D00022009215461EE0751E05D4FFF742
:100C7000C9FE303262556D1EF9D5B34601220843D4
:100C800002D000227F1C04E02078302801D100220D
:100C90007F1E002A099784D01DE0112D07DAFFF787
:100CA000B1FE303262556D1C50EA0102F5D10843A5
:100CB00002D00098C8B10EE00021681E05E0235C58
:100CC000625C63542254401E491C8142F7DBAB46F0
:100CD000A81B401E0990002004F80B000B98099AED
:100CE000C0F80880C0E9002B7AE711264FF0000811
:100CF00057E72DE9F04F88460446D21D22F0070140
:100D000091B0D1E90001CDE90A0104F010FE0246DC
:100D10000B98C00F01D02D2007E02068810701D576
:100D20002B2002E0202101EAC000032A099001D013
:100D3000072A05DB03464146204600F053FB0BE142
:100D40002078800601D5E06900E00620B8F1650F43
:100D5000814606D0B8F1660F18D0B8F1670F70D190
:100D600031E00020B9F1110F009001DB112301E007
:100D700009F101030AAA01A90CA8FFF7E2FEDDE9C7
:100D80000C70002609F10105834647E001204B461F
:100D900000904FF000470AAA01A90CA8FFF7D1FE66
:100DA000DDE90DB00C995D46002610B909F101008E
:100DB0000D18B9EB050003D4C0F1FF3609F10105A8
:100DC000A5EB09002BE0B9F1010F01DA4FF00109A1
:100DD0000020B9F1110F0090484601DD112300E019
:100DE00003460AAA01A90CA8FFF7ABFEDDE90C70C7
:100DF0004D4600268346207800070AD4AB4500DA2A
:100E00005D4601A8012D04DD411911F8011C3029AE
:100E100007D04F4502DA17F1040F04DA01208246A9
:100E20000FE06D1EEEE7002F02DCED1B3E4403E0F9
:100E3000781CA84200DD7D1CB81B00F1010A4FF0B0
:100E400000472078000703D4AA4501DB4FF0FF3AA2
:100E50000021B7F1004F0DF143088DF8431024D065
:100E600002202B23002F01DA7F422D230A21021EAC
:100E7000A0F1010000DC5FB197FBF1FC97FBF1F200
:100E800001FB1C7C17460CF1300C08F801CDEEE795
:100E9000A8F1010003702188090501D5452100E072
:100EA0006521A0F1010800F8011C09980FA9A1EB28
:100EB0000807FF1D00B10120411901EBEA70A1698B
:100EC0003844081A401EA0612078C00602D420468B
:100ED000FFF7A2FA099828B1D4E901219047206AC6
:100EE000401C20622078C00622D52046FFF794FAE5
:100EF0001EE0002E04DBB34502DD01A8805D00E0AA
:100F00003020D4E901219047206A401C2062761CE1
:100F1000AAF101005FEA000A0AD100F05FFAC06896
:100F20000168405CD4E901219047206A401C20629E
:100F3000281EA5F10105DCDC07E0D4E9012118F841
:100F4000010B9047206A401C2062381EA7F1010760
:100F5000F3DC2046FFF776FA032011B041E60000EB
:100F60002DE9F04F04460D46D21D22F0070089B04E
:100F7000D0E900974846394604F0D9FC0246F80FFC
:100F800001D02D2307E02068810701D52B2302E043
:100F9000202101EAC0038DF820300BB1012000E0D0
:100FA0000020032A824601D0072A04DB2946204676
:100FB00000F018FA3FE12078800601D40D2500E00A
:100FC000E569C7F30A560D2D49DA00214FEA175B90
:100FD00008464FF00000002F00F4400007DA00EB55
:100FE00080004FF4400100EBD07001EA60008115F1
:100FF000012901DD4FF0FF3100224FEA850CBCF1E1
:10100000180F06D31346ACF118004FF08052C240BF
:1010100003E04FF4801323FA0CF30CF10C0CBCF139
:10102000200F04D3ACF1200C09FA0CF001E007FA10
:101030000CF000294FF0004801DD18B90FE00ED187
:1010400040450CD319EB02095F4121B9404502D15B
:101050009F4329EA0209BBEB175F00D0761C20886A
:10106000000502D57B48784402E07A487844193874
:1010700008AA302302F80A30037C0AF10101002E8D
:101080000AF1020A53546A4602DC4FF0300101E0D3
:101090004FF031014FF001088DF8001002D0A6F298
:1010A000FF3603E059EA470100D06B4E002D02DC09
:1010B0002178090704D54FF002082E218DF8011080
:1010C000C44600210BE0C7F303433F01C35C491C46
:1010D0006D1E02F80830052908F1010801DA002D1B
:1010E000F1DC00210CE000EB1973491C1B786D1E2C
:1010F000082902F808304FEA091908F1010801DA55
:10110000002DF0DC21688B0602D516E0A8F101085D
:10111000E04505DD02EB080313F8013C302BF5D068
:10112000B8F1000F09DD02EB080313F8013C2E2B88
:1011300003D1090701D4A8F10108002D05DD3E21E6
:1011400002F808106D1E08F10108407C002E02F81C
:10115000080008F1010804DA2D20764202F80800A0
:1011600002E02B2002F808000A214FF47A70864230
:1011700008F101080BDB96FBF0F3303302F808307E
:1011800096FBF0F308F1010800FB136601E0642E02
:101190000CDB642096FBF0F3303302F8083096FB4A
:1011A000F0F308F1010800FB136601E00A2E06DBEC
:1011B00096FBF1F0303002F8080008F1010896FBC8
:1011C000F1F001FB1060303002F80800A16908F16D
:1011D000010808EB050202EB0A00081AA06120785A
:1011E000C00602D42046FFF717F9216A08AE01EBCA
:1011F0000A00206204E0D4E9012116F8010B9047AF
:10120000BAF1010AF7D22078C00602D52046FFF7CE
:1012100003F96E4609E016F8010B3E280FD0D4E919
:1012200001219047206A401C2062B8F10108F2D2E7
:101230002046FFF707F909B00320BDE8F08F206AC8
:101240002844206203E0D4E90121302090476D1E3C
:10125000EBD3F8E7216B000002FCFFFF10B54369F8
:1012600013B1AFF3008001E0FFF70FF9012010BDCB
:10127000127800F124010A7000224A700122EDE781
:1012800011684FF0FF32E9E710B5436913B1AFF3CE
:10129000008001E0FFF790F9012010BD128800F1F5
:1012A000240182840022C2840122EDE711684FF0FC
:1012B000FF32E9E72DE9F05F824615468B460027AD
:1012C0000AF10104B9460078302801D09DB113E03D
:1012D00014F8010B0127782803D0582801D045B114
:1012E0000AE00DB1102D07D1002714F8010B1025CD
:1012F00002E0082500E00A250026B0460EE005FBC6
:10130000080005FB06F101271FFA80F801EB1046E3
:10131000B6F5803F00D3B94614F8010B294600F01A
:10132000A1F80028EBDABBF1000F05D00FB1641E65
:1013300000E05446CBF80040B9F1000F06D0FFF7AB
:1013400067F802210160C81EBDE8F09F48EA064028
:10135000FAE770B516460C460546FFF74BFB0368E7
:1013600093F80101012806D0FF2C0FD8185D68B151
:1013700001202C7070BDD3F807013246214603F2DC
:10138000071303442846BDE8704018474FF0FF306C
:1013900070BD7546FFF72AFBAE4605006946534609
:1013A00020F00700854618B020B5FEF761FFBDE8C4
:1013B00020404FF000064FF000074FF000084FF0BC
:1013C000000B21F00701AC46ACE8C009ACE8C0094D
:1013D000ACE8C009ACE8C0098D46704700487047CA
:1013E000C80800202DE9F0411F4604460326016885
:1013F000072A01F4006004DB08B116A505E016A574
:1014000003E008B115A500E015A521F0100020604B
:10141000A069C01EA0610FB1401EA0612046FEF76A
:10142000FBFF4FB1D4E9012138469047206A401CA8
:101430002062C01C206206E0206AFAE7D4E901219C
:1014400015F8010B9047761EF8D22046FEF7FAFFFA
:10145000BDE8F0814E414E006E616E00494E46007F
:10146000696E66003A2800D2303820F02002412A06
:1014700001D3A2F13700884201D34FF0FF3070470B
:101480002DE9F047814616468AB0354878440DC8A4
:101490008DE80D0032487844801C03AC0DC884E808
:1014A0000D0041F69B300844372190FBF1F290FB90
:1014B000F1F5A5F1800501FB12041B3C02D5644245
:1014C000012000E00020DFF898A080460027FA44C1
:1014D000AAF1BE0A0EE0E0070AD03246684607EBE2
:1014E000470101230AEB810100F0DEFA8DE80700D5
:1014F00064107F1C002CEED1194F7F44AE3F19E0E1
:10150000E80715D007EB04100DF1180A90E80E005B
:101510008AE80E00C068F04201D19819089032465E
:10152000012306A903A800F0BFFA03AB83E8070074
:101530006D10641C002DE3D14FF001033246694663
:10154000B8F1000F03A802D000F099FA01E000F012
:10155000ABFAC9E90001C9F808200AB0BDE8F08774
:101560008C67000010B50446AFF300802046BDE84C
:101570001040FEF768BE000001491820ABBEFEE730
:101580002600020070475FEA400C08BF91F0000F90
:101590004FEA8C234FEAC12243EA51514FEA1C50D3
:1015A00018BF00F5F0404FEA300018BF41F000418D
:1015B0005FEA6C5C00F02980BCF1FF3F08BF40F09F
:1015C00080407047130C06BF12044FF0100C4FF010
:1015D000000C130E04BF12020CF1080C130F04BF11
:1015E00012010CF1040C930F04BF92000CF1020CD9
:1015F000D30F04BF52000CF1010C11464FF0000252
:10160000A0F11F00A0EB0C00704711F0004F08BFC5
:10161000704731F000413FF4D5AF0B0C06BF090411
:101620004FF0100C4FF0000C0B0E04BF09020CF130
:10163000080C0B0F04BF09010CF1040C8B0F04BF45
:1016400089000CF1020CCB0F04BF49000CF1010C16
:10165000CCF12003A0EB0C0022FA03F302FA0CF207
:1016600041EA030100F10100704720F07F4C80EA5D
:10167000030023F07F47ACEB070303F57C5300F036
:10168000004003F1FF032DE980494FEA154B09B4EF
:101690004FEA144325EA0B4E24EA03480FF20426CE
:1016A00006EB132749083E785FEA320203FB066720
:1016B000C7F5000707FB06F64FEA54374FEAD64650
:1016C00006F1020607FB066CCCF1005C4FEA1C47F2
:1016D0002CEA074C07FB06F40CFB06F504EB154659
:1016E0004FEA961634BF00204FF000404FEAD13742
:1016F00006FB07FC4FEA1C4C0CFB0BF7D21B03FB51
:101700000CF761EB07010CFB0EF7B0EB074072EB37
:1017100017420CFB08F734BFA2EB0742B2EB0742BB
:1017200061EB17414FEA0C444FEA910706FB07FCB7
:101730004FEA1C4C0CFB0BF7B0EBC74072EB573277
:1017400003FB0CF734BFA2EBC742B2EBC74261EB1D
:1017500057310CFB0EF7B0EBC70072EB57720CFB66
:1017600008F734BFA2EBC702B2EBC70261EB5771B7
:10177000039F4FEA816141EA921104EBCC044FEAE6
:10178000D1374FEA826206FB07FC42EA90124FEA29
:1017900080604FEA1C4C0CFB0BF7D21B03FB0CF7D1
:1017A00061EB07010CFB0EF7B0EB074072EB174241
:1017B0000CFB08F734BFA2EB0742B2EB074261EB28
:1017C00017414FEA8C554FEA910704EB9C2406FB26
:1017D00007FC4FEA1C4C0CFB0BF7B0EBC74072EB5D
:1017E000573203FB0CF734BFA2EBC742B2EBC74240
:1017F00061EB57310CFB0EF7B0EBC70072EB577281
:101800000CFB08F734BFA2EBC702B2EBC70261EBD7
:10181000577115EB4C254FEA816141EA92114FEA6D
:1018200082624FEAD13742EA901206FB07FC44F18C
:1018300000044FEA80604FEA1C4C0CFB0BF7D21BF4
:1018400003FB0CF761EB07010CFB0EF7B0EB074055
:1018500072EB17420CFB08F734BFA2EB0742B2EB66
:10186000074261EB174115EB1C154FEA813141EA44
:1018700092414FEA823242EA90424FEA80304FEA88
:101880000C7644F1000448EA03434EEA0B484FF05B
:10189000000EB2EB080C71EB030724BF6246394619
:1018A0004EEB0E0E4FF0000B0018524149414BEB2E
:1018B0000B0BB2EB080C71EB03077BF1000B24BFA1
:1018C000624639464EEB0E0E4FF0000B00185241A7
:1018D00049414BEB0B0BB2EB080C71EB03077BF1AF
:1018E000000B24BF624639464EEB0E0E51EA02074A
:1018F00018BF46F0010616EB0E7655F1000254F1C2
:10190000000103D5BDE88901BDE80088BDE8890173
:10191000BDE80048B619524141EB0101A3F10103B2
:10192000704780807F7E7D7C7B7A7978777676754C
:101930007473727171706F6E6E6D6C6C6B6A6A69C4
:101940006868676666656464636362616160605F5E
:101950005F5E5E5D5D5C5C5B5B5A5A5959585857D7
:10196000575656555555545453535252525151503F
:1019700050504F4F4F4E4E4D4D4D4C4C4C4B4B4B92
:101980004A4A4A49494948484847474747464646D8
:101990004545454444444443434343424242424113
:1019A0004141002B9C4630D477002BD01CB54FEA28
:1019B000370703B44FF010004FF01001BAF1000FD9
:1019C00006D0BCF1000FDCBF40F0080040F0080179
:1019D0004FF000000FBCBDE810400BF1010BBBF154
:1019E000010F08BF5FEA170722BF12F1010211F1D0
:1019F00001014FF0004143F1000300F0004043EAD1
:101A000000007047F9D35708D0E746EA064613F1BD
:101A1000400F4FEA16461FDD13F1200FDFBF1643BC
:101A20000A46002120335B42BED0C3F1200746EABC
:101A3000064602FA07F74FEA164646EA0706C3F1DA
:101A4000200722FA03F201FA07F721FA03F14FF017
:101A5000000342EA0702A7E746EA020646EA06460C
:101A60004FEA164646EA0106BCBF46EA0646360C71
:101A70004FF000034FF000024FF0000194E72DE912
:101A8000804C9A46934670B491E8380007C831EA12
:101A9000400C48BF34EA430C03D5FFF7E6FDFFF7DF
:101AA00080FFF0BCBDE8008C2DE9804C9A4693463F
:101AB00070B491E8380007C810F0804F08BF13F0E9
:101AC000804F03D100F005F8FFF76BFFF0BCBDE8D5
:101AD000008C20F07F4780EA030023F07F4C07EB67
:101AE0000C03A3F57C5300F00040A3F1FE0392F039
:101AF000000F00F0B38095F0000F00F077802DE923
:101B000001494FEA11404FEA144621EA004800FB20
:101B100006FC24EA064708FB06F607FB08F800FB6C
:101B200007F718EB06484CEB164C4FEA124B18EB34
:101B300007484FEA15464CEB174022EA0B4E0BFBC9
:101B400006FC25EA06470EFB06F607FB0EFE0BFB1E
:101B500007F71EEB064E4CEB164C4FF000061EEB43
:101B6000074E4CEB174B18EB0B0840F1000018EB3D
:101B70000E0B58EB000840F100008F1A4FF00001E7
:101B80003CBFC943661B14BFB5EB040C00213CBF2E
:101B9000C943F61B4FEA17444EEA8E0E27EA044566
:101BA0004FEA1C4704FB07622CEA074C05FB07F7CA
:101BB0000CFB05F604FB0CFC16EB074642EB174248
:101BC00016EB0C4642EB1C421BEB060658EB0202DE
:101BD000414146EA9E0601D5BDE80189B619524148
:101BE00041EB0101A3F10103BDE801894FEA14456E
:101BF0004FEA114724EA054621EA074C05FB07F4A2
:101C000006FB07F70CFB06F105FB0CFC11EB07418B
:101C100044EB17444FEA124711EB0C4144EB1C44D0
:101C200022EA074C05FB07F206FB07F70CFB06F65A
:101C300005FB0CFC16EB074642EB174216EB0C4675
:101C400042EB1C456A1854F1000148BF7047B619B1
:101C5000524141EB0101A3F10103704795F0000FE0
:101C600037D04FEA11424FEA144721EA024624EAEC
:101C7000074C02FB07F106FB07F70CFB06F402FB1F
:101C80000CFC14EB074441EB17414FEA154714EBEA
:101C90000C4441EB1C4125EA074C02FB07F506FB0F
:101CA00007F70CFB06F602FB0CFC16EB074645EBB0
:101CB000174516EB0C4645EB1C42121951F1000179
:101CC00048BF7047B619524141EB0101A3F101032E
:101CD00070474FEA14454FEA114724EA054621EAC6
:101CE000074C05FB07F106FB07F70CFB06F24FF06C
:101CF000000605FB0CFC12EB074241EB174112EB0F
:101D00000C4251EB1C4148BF7047921841EB010156
:101D1000A3F101037047000010B50021094801F04C
:101D2000CFFE0421074801F0CBFE3C21064801F01C
:101D30001BFD3C21054801F017FDBDE8104004489B
:101D400001F0E0BBE001002028020020700200202A
:101D5000980100202DE9FE4F02F0C2FBA04C0025A7
:101D60006088401C80B260800A287DD304F1140290
:101D7000911E881E65808DE80700831E021F811F4B
:101D8000984802F053FC608AE18A08442083B4F941
:101D90000E0004F0F6FC06460F46B4F90A0004F003
:101DA000F0FC32463B4603F07BFF8F4A8F4B04F03A
:101DB00033FB00228E4B04F04BFD04F03FFA064645
:101DC0002062B4F9180004F0DCFC6FF00E0205F09C
:101DD000E6FA0022874B04F03BFDDFF81C92DFF8A7
:101DE0001CA24A46534604F033FD04F027FA206350
:101DF00007463046616A04F081FF0146A062DFF8C1
:101E000000824FF07E5B7F4805F016F9064640469B
:101E1000E16A05F011F9314604F070FF8046E06296
:101E20003946606B04F06AFF07466063606C20F01F
:101E3000004004F037FF0022734B04F0EDFA734AC0
:101E4000734B04F005FD4A46534604F029FA04F0AA
:101E5000F5F906466F48864200DD0646314658468B
:101E600005F0F2F9394600E015E005F0E5F807461F
:101E70004146304605F0E0F8394604F03FFF664938
:101E80006063884202DC6549884204D9207810B139
:101E9000257001206070A088401C80B2A08032288C
:101EA00034D3A580012000F001FA04F06AFC5C4EF6
:101EB0000022334604F0B0FA5A4FDFF86C813A46FC
:101EC000434604F0A9FA04F0B9F9A063022000F037
:101ED000EDF904F056FC0022334604F09DFA3A4630
:101EE000434604F099FA04F0A9F90646E063A06BB2
:101EF0003146074604F002FF4FF0FF3105F07DFA4E
:101F000020643146384605F09FF960642078002847
:101F10005BD0E088DFF8C880401C80B2E08008F128
:101F200050080A2836D3E580606BC8F8040046469E
:101F3000404603F069F8F06880F00047A764E16C60
:101F40003846894604F0DAFE05F00EF806B26683DC
:101F50004946384605F078F905F006F801B26422E2
:101F60005042A183642E01DD628302E0864200DAE2
:101F70006083642901DDA28302E0814200DAA0834C
:101F8000B4F91A10012002F08DFDB4F91C100220E2
:101F900002F088FD2089401C80B22081322812D3B3
:101FA00025810F4D206C8C356860284603F02CF895
:101FB000E968C8F800103C35606C6860284603F09A
:101FC00023F8E868E064BDE8FE8F0021012002F0FC
:101FD00069FD03B00021BDE8F04F022002F062BDB0
:101FE000040000204401002044174154FB21094013
:101FF000008066C000409F407B14AE47E17A843F7A
:102000009A99193FCCCCCC3E00001440B81E85EB09
:1020100051B89E3F0AD7233D00004842000048C205
:10202000008079409A9999999999A93F0A4910B5E0
:102030008A884C880023A24202D10370012010BD7F
:10204000064CA25C02708888632801D38B8001E073
:10205000401C8880002010BD3A0100206803002049
:10206000024AD188491CD18000F01AB83A010020F8
:1020700001220249024801F05FBF00003A0100203E
:10208000000300200FB400B599B01BAA68461A9946
:10209000FEF714F9684600F0B5F819B05DF814FBC6
:1020A00030B50B4B642459884A1CB2FBF4F504FB91
:1020B00015249D88AC4201D1012030BD054C632917
:1020C000605402D30020588000E05A80002030BDC8
:1020D0003A010020680300200549898808446421EA
:1020E000B0FBF1F201FB12000249085C70470000EE
:1020F0003A010020680300202DE9F8472B4800250D
:102100002C4641888088A846081A6421643090FBD8
:10211000F1F201FB120087B22E46AA46DFF890903A
:102120001CE06846FFF782FF9DF800005B2805D0A1
:102130005D2807D0B8F1010F0AD00DE04FF001087B
:10214000002509E0B8F1010F06D109F805A007E064
:1021500009F805006D1CADB2761CB6B2BE42E0D3E4
:102160000020134A0146643255464E460AE02C2BA5
:1021700012D000EB800702EB87073B55641CA4B22A
:10218000491C89B2735C002BF1D100EB800002EB9B
:1021900080000555BDE8F88700EB800302EB830360
:1021A000401C1D5580B20024EAE700003A010020DF
:1021B000CC03002030B51248002423464188808893
:1021C000081A6421643090FBF1F201FB120085B221
:1021D00010E01846FFF780FF5B2805D01846FFF790
:1021E0007BFF5D2802D003E0012401E0012C05D033
:1021F0005B1C9BB2AB42ECD3002030BD012030BD54
:102200003A01002010B50446FEF777F8214682B265
:10221000BDE810404FF0FF33014801F0B3BE0000AD
:1022200000030020FEE7000010B5012112A20846BD
:1022300002F0AAFE13A20121022002F0A5FE15A2BF
:102240000121032002F0A0FE0821012002F00CF978
:1022500018B102F019F902F067FF2021032002F003
:1022600003F90028E1D00F490020087002F096FC25
:10227000BDE8104002F008B94465627567204D6FF3
:10228000646500004B322043616C69627261746561
:10229000000000006C6F6E67204B343A457869741B
:1022A0000000000008010020704700000021012804
:1022B00003D0022803D000207047044800E00448FF
:1022C0000268506A516200B2704700002802002084
:1022D0007002002072B6FEE706490020C861064879
:1022E000016941F004010161016941F040010161AE
:1022F000704700004803002000200240064A0021E9
:10230000D16106490A6942F002020A61486108691E
:1023100040F0400008617047480300200020024060
:10232000044B0022DA61044A136943F0010313618C
:10233000018070474803002000200240144800221A
:10234000C168CB06134904D5CA6942F00202CA61CA
:102350001022C3685B0705D5CB6943F00103CB614D
:1023600042F00402C369DB0707D0CB6943F00403E2
:10237000CB61C16921F00101C161A2F58071013910
:1023800001D0C2607047C16921F00101C16170478D
:10239000002002404803002070B5054600F054FAC2
:1023A0000646114C09E0681C07D025B100F04CFA34
:1023B000801BA84201D9032070BDE068C007F2D19C
:1023C000E068800601D52020E060E068C00605D402
:1023D000E069C00702D1E068400703D5FFF7AEFF10
:1023E000012070BD002070BD0020024010B590F8A3
:1023F00021100022022905D00421816380F82020C9
:10240000012010BD01680B6823F00E030B6001680A
:102410000B6823F001030B6090F84030C46B01217E
:1024200001FA03F3636080F8211080F82020104641
:1024300010BD000010B590F821100024022903D02F
:102440000421816301243DE001680A6822F00E0244
:102450000A6001680A6822F001020A601A4A0168EB
:10246000914201D1012121E0174A1432914201D158
:1024700010211BE0144A2832914201D1891515E040
:10248000114A3C32914201D189140FE00E4A503278
:10249000914202D14FF4803108E00B4A64329142FC
:1024A00002D14FF4801101E04FF08071064A083AE2
:1024B0005160012180F82110002180F82010416B2B
:1024C00001B18847204610BD0800024070B504469F
:1024D00000F0BAF90546601C02D0044800780444B4
:1024E00000F0B2F9401BA042FAD370BD10010020E9
:1024F0002DE9F047054626480F460126017E0129B1
:102500000FD00121814601762868DFF888804CF2DF
:102510005034022808D0A2462046FFF73DFFA8B15C
:1025200031E00220BDE8F0872046FFF735FF08BB09
:102530000120FFF7D1FE2046FFF72EFFD8F810103C
:10254000064621F00401C8F810101CE04FF0FF30DF
:102550003860AC6811E02046FFF7D0FE5046FFF728
:102560001BFFD8F81010060021F00201C8F8101067
:1025700001D03C6007E004F58064D5E9020100EB7E
:102580008120A042E7D8002189F818103046C9E719
:1025900048030020002002400348016941F0800107
:1025A0000161002070470000002002402DE9F05F2B
:1025B00007461C4888460024017E15461E46012910
:1025C00009D00121814601764CF2503A5046FFF77E
:1025D000E3FE18B122E00220BDE8F09F012F02D0F7
:1025E000022F00D00427D346DFF83CA02201284662
:1025F0003146FDF74FFE81B208EB4400FFF790FE35
:102600005846FFF7C9FEDAF8102022F00102CAF896
:10261000102018B9641CE4B2BC42E7D3002289F848
:102620001820D9E748030020002002400649002076
:102630000A69120607D5054A4A60054A4A600969CF
:10264000090600D50120704700200240230167459C
:10265000AB89EFCD2DE9F84FDFF8B8910024A9F14F
:10266000040B23460F2709F1040AABF1040EC9E05D
:102670000125A5402A40AA427DD1674ED1F804C069
:10268000ACEB0608B44532D014DCBCF1030F3AD0F1
:1026900009DCBCF1000F2AD0BCF1010F1CD0BCF149
:1026A000020F31D11DE0BCF1110F17D0BCF1120F98
:1026B0002AD119E0B8F5881F19D006DCB8F5803F9B
:1026C00015D0B8F5801F1FD111E0B8F5001F0ED04E
:1026D000B8F5041F18D10AE0CB6815E0CB681B1DC4
:1026E00012E0CB6808330FE0CB680C330CE08B684A
:1026F0002BB1012B4FF0080303D0456104E0042304
:1027000002E0056100E00023FF2A01D8064601E04F
:1027100000F104064FEA840501D9A5F12005D6F899
:10272000008007FA05FC28EA0C0803FA05F548EAD8
:102730000508C6F800804D68ED0062D5374DAE69DA
:1027400046F00106AE61AD6924F0030605F001050F
:102750000095334D06EB050CDCF80850A607360F44
:1027600007FA06F825EA0805DFF8B880404503D1E6
:102770004FF0000817E044E0DFF8AC80404502D19C
:102780004FF001080FE0DFF8A480404502D14FF080
:10279000020808E0DFF89880404502D14FF00308B6
:1027A00001E04FF0040808FA06F848EA0508CCF8FA
:1027B00008804D68D9F80060ED024D4601D51643FA
:1027C00000E096432E604D68DAF80060AD02554691
:1027D00001D5164300E096432E604D68DBF800609B
:1027E000AD035D4601D5164300E096432E604D686B
:1027F000DEF80060ED03754601D5164300E0964310
:102800002E60641C0D682A46E5407FF431AFBDE8B8
:10281000F88F000008040140000011100010024071
:102820000000014000080140000C01400010014080
:10283000001401408068084000D0012070470AB1B0
:10284000016170470904FBE7014880687047000098
:102850001001002070B5040025D094F83D0000253B
:1028600020B984F83C50204600F07EFA242084F8F9
:102870003D002068016821F00101016020680168C5
:1028800041F4004101602068016821F400410160C9
:1028900000F0CCFB4D4A6168914201D84C4900E000
:1028A0004C49884201D2012070BD4B492368B0FBDE
:1028B000F1F15E6826F03F060E435E606368934266
:1028C00006D94FF4967359434FF47A73B1FBF3F181
:1028D0002368491C1E6A26F03F063143196261686D
:1028E000914210D84900401EB0FBF1F2521CC2F3D5
:1028F0000B02042A01D2042022E0B0FBF1F0401CBC
:10290000C0F30B001CE0A268F2B301EBC10303EBC0
:102910000116431EB3FBF6F35B1C43F480431B0517
:1029200049D092B301EBC10202EB0111401EB0FB92
:10293000F1F0401CC0F30B0040F4804040F4004034
:102940002168CA694CF6FF739A431043C861D4E901
:10295000071001432068026822F0C00211430160A1
:10296000D4E9030101432068826848F2FF339A43A7
:1029700011438160D4E9050108432168CA6822F047
:10298000FF021043C86001E00EE016E02068016815
:1029900041F0010101602564202084F83D00256399
:1029A00084F83E50002070BD01EB4106431EB3FB8E
:1029B000F6F35B1CB3E70120C2E701EB4101401EC7
:1029C000B0FBF1F0401CC0F30B00B7E7A08601009C
:1029D00080841E0000093D0040420F002DE9FF4F9A
:1029E00083B00025DDE910799A4693460446DDF868
:1029F00048800095FFF728FF064694F83D00202800
:102A00007CD11923012288492046009601F022FC3E
:102A10000028F5D194F83C0001286FD0012084F8FB
:102A20003C0020680168C90703D1016841F0010139
:102A300001602068016821F400610160222084F8AF
:102A40003D00402084F83E0025646762A4F82A9087
:102A5000608D20857548E062CDE9008653465A4670
:102A60002046049901F0F8FA00287CD1208DDFF887
:102A7000C091202768B1012814D00228206801687D
:102A80001ED041F480610160206841698069009036
:102A9000BCE02068416981690091016841F40071DE
:102AA0000160B3E02068016821F48061016072B6C2
:102AB0002068416981690091016841F400710AE070
:102AC00041F40061016072B620684169816900913A
:102AD000016821F48061016062B697E0032865D83F
:102AE00001280CD0022843464FF0000249462046F8
:102AF00000960BD001F0AEFBA8BB0CE091E0324693
:102B00004146204601F04CFC68BB72E001F0A2FB9C
:102B100048BB72B633E02068016821F4806101602F
:102B200072B620680069616A0870606A401C606261
:102B3000208D401E2085608D401E60853D4846F2F8
:102B4000A8110068B0FBF1F0C0EBC00000EB800002
:102B50000090401E009007D020684069C0434007A5
:102B60000DD50098F5E727E044F8305F6773A5734B
:102B7000206940F02000206162B625731CE02068C7
:102B8000016841F40071016020680069616A0870A1
:102B9000606A401C6062218D491E2185618D491E3D
:102BA000618562B621680969017026E032464146B6
:102BB000204601F0F5FB18B1012007B0BDE8F08F09
:102BC00020680069616A0870606A401C6062208D3C
:102BD000401E81B22185608D401E6085206842695B
:102BE000D243520712D4032903D1016821F4806132
:102BF000016020680069616A0870606A401C606258
:102C0000208D401E2085608D401E6085208D00280F
:102C10007FF464AF84F83D7084F83E5084F83C50F3
:102C2000CBE70220C9E70000020010000000FFFF10
:102C3000040001001C0100202DE9FF4F83B09A46DB
:102C4000DDE9119793460446DDF84080FFF7FCFD6F
:102C5000054694F83D0020287FD1192301224049E0
:102C60002046009501F0F6FA002876D194F83C0051
:102C7000012872D0012084F83C0020680168C9074F
:102C800003D1016841F0010101602068016821F46D
:102C900000610160212084F83D00402084F83E005E
:102CA00000262664C4F82480A4F82A90608D20852C
:102CB0002C48E062CDE9007553465A4620460499F7
:102CC00001F048FA70B930E02A463946204601F052
:102CD0009FFB58B1206C042804D12068016841F49E
:102CE00000710160012007B0BDE8F08F606A2168C3
:102CF00000780861606A401C6062218D491E89B2BB
:102D00002185628D521E628522685369DB435B0711
:102D10000BD469B100781061606A401C6062208D3C
:102D2000401E2085608D401E6085208D0028CBD1FF
:102D30002A463946204601F061FA0028CAD154F8E3
:102D40003D0B016841F400710160202004F81E0968
:102D5000E67766770020C6E7FFE70220C3E70000BA
:102D6000020010000000FFFF10B586B000210091A6
:102D70000191029103910068104988421BD1104CC7
:102D8000A06940F00800A061A069694600F0080051
:102D900004904FF4406000901220019003200390B3
:102DA0000848FFF757FCE06940F48000E061E06903
:102DB00000F48000049006B010BD000000580040F0
:102DC00000100240000C0140024881680278114462
:102DD0008160704710010020074810B5016841F07C
:102DE00010010160032000F079F8032000F006F8DC
:102DF00000F024F8002010BD0020024070B50D4DF9
:102E000004464FF47A712878B1FBF0F00A4909685A
:102E1000B1FBF0F000F0E0FA48B9102C07D2002224
:102E20002146501E00F03AF800206C6070BD012071
:102E300070BD0000100100201C0100200E4808B5E4
:102E4000816941F001018161816901F00101009115
:102E5000C16941F08051C161C06900F080500090AB
:102E6000052000F03BF80548416821F0E06141F0A1
:102E70000071416008BD00000010024000000140E8
:102E8000002809DB00F01F02012191404009800069
:102E900000F1E020C0F8001170470000F0B40E4BC4
:102EA0001B680C46C3F30223C3F10705042D00D9A8
:102EB0000425191D072901D2002300E0DB1E01268D
:102EC00006FA05F1491E214099409E40761E1640A3
:102ED0003143F0BC02F03FBD0CED00E0064900F0CC
:102EE000070208684FF6FF03184040EA0220034A31
:102EF00010430860704700000CED00E00000FA0588
:102F00002DE9F0470F46050061D0434E306800F0D0
:102F10000700B84209D2306820F00700384330601B
:102F2000306800F00700B84251D128683B4C810757
:102F300012D5400703D5606840F4E06060602878EF
:102F4000000703D5606840F4605060606068A9685D
:102F500020F0F000084360602878C00728D0686837
:102F6000012810D02168022810D0890700292EDA04
:102F7000616821F0030101436160FFF765FC804651
:102F800041F288390DE021688903EFE78901EDE717
:102F9000FFF75AFCA0EB0801494502D90320BDE820
:102FA000F0876068696800F00C00B0EB810FEFD12A
:102FB000306800F00700B8420BD9306820F00700F5
:102FC00038433060306800F00700B84201D001207B
:102FD000E5E72878400705D56068E96820F4E060F7
:102FE000084360602878000706D56068296920F4E6
:102FF000605040EAC100606000F038F86168084A3B
:10300000C1F30311515CC8400649086006480068D6
:10301000FFF7F4FE0020C2E700200240001002404B
:10302000887400081C010020140100200448054990
:1030300000684968044AC1F30221515CC8407047E6
:103040001C01002000100240987400080448054943
:1030500000684968044AC1F3C221515CC840704706
:103060001C01002000100240987400080E4A5168AC
:103070000E4801F00C03042B11D0082B0FD10C4883
:10308000C1F38343C903C05C0AD55168084AC1F340
:103090004041921E515C054A5043B0FBF1F070472D
:1030A00004494843704700000010024000127A00B3
:1030B0007874000800093D002DE9F84F040070D035
:1030C0002078C04DC00749D06868C0F3810001284E
:1030D00007D06868C0F38100022809D16868C0037E
:1030E00006D52868800339D560680028E7D035E028
:1030F0006068B0F5803F0BD010B1B0F5A02F11D0B3
:10310000286820F480302860286820F4802002E0BD
:10311000286840F480302860606890B1FFF794FB25
:1031200006460AE0286840F480202860F0E700BFE7
:10313000FFF78AFB801B642873D828688003F7D5C3
:103140000CE0FFF781FB064605E000BFFFF77CFBC4
:10315000801B6428F0D828688003F7D420789A4E22
:1031600080074FF001094FF0000839D5686810F06A
:103170000C0F07D06868C0F38100022809D1686885
:10318000C00306D42868800714D52069012808D117
:1031900010E02069B0B1C6F80090FFF755FB074674
:1031A00005E00AE1FFF750FBC01B0228C4D82868DD
:1031B0008007F7D52868616920F0F80040EAC1006F
:1031C00028600DE0C6F80080FFF73EFB074604E0EC
:1031D000FFF73AFBC01B022823D828688007F7D4E2
:1031E000207800072CD57948A169D9B1C0F80090A2
:1031F000FFF72AFB074604E0FFF726FBC01B022867
:103200000FD8686A8007F7D571484FF4FA51006803
:10321000B0FBF1F0009000BF0098411E0091FAD27F
:103220000EE080E0C0F80080FFF70EFB074604E0E8
:10323000FFF70AFBC01B022875D8686A8007F7D41D
:103240002078400760D5E8690027C00008D4E86905
:1032500040F08050E861E869012700F0805000905C
:103260005C480168C90513D40168834641F4807144
:103270000160FFF7E9FA824606E000BFFFF7E4FAD3
:10328000A0EB0A0064284ED8DBF80000C005F5D595
:10329000E06801280AD008B1052813D0286A20F078
:1032A00001002862286A20F0040002E0286A40F049
:1032B00001002862E06841F2883B98B1FFF7C4FA48
:1032C00082460BE0286A40F004002862EEE700BF67
:1032D000FFF7BAFAA0EB0A0159455AD8286A8007C5
:1032E000F6D50CE0FFF7B0FA824605E0FFF7ACFA3E
:1032F000A0EB0A0159454CD8286A8007F6D41FB1C3
:10330000E86920F08050E861E06988B36968C1F33A
:103310008101022944D00228C6F8608004D0FFF75A
:1033200093FA044638E034E0FFF78EFA074604E0EB
:10333000FFF78AFAC01B02282BD828688001F7D42F
:10334000206AB0F5803F05D16868A16820F400309C
:1033500008436860D4E908010843696821F47411DE
:1033600008436860C6F86090FFF76EFA044606E00E
:1033700025E000BFFFF768FA001B022809D828687B
:103380008001F7D51BE000BFFFF75EFA001B0228A3
:1033900002D90320BDE8F88F28688001F4D40EE03C
:1033A0000128F7D06868226A00F48031914204D184
:1033B000616A00F47010884201D00120EAE7002021
:1033C000E8E7000000100240000042428004424250
:1033D0001C0100200070004010B5401EB0F1807F3D
:1033E00001D3012010BD4FF0E02460610F21601770
:1033F00002F0B1FA0020A06107202061002010BD7A
:103400007047704770B590F83C20012A26D00124FF
:1034100080F83C40022280F83D2003685A689D688D
:1034200022F070060A6832435A600D4B02689A42D5
:1034300008D0B2F1804F05D00A4B9A4202D00A4B15
:103440009A4204D1496825F080031943916080F8BD
:103450003D40002180F83C10084670BD022070BD40
:10346000002C0140000400400008004010B504009A
:1034700003D094F83D0010B107E0012010BD0020FA
:1034800084F83C00204600F01FF8022084F83D003C
:10349000211D206801F0E2FF012084F8460084F835
:1034A0003E0084F83F0084F8400084F8410084F82E
:1034B000420084F8430084F8440084F8450084F80E
:1034C0003D00002010BD000008B500680B4988428F
:1034D00012D10B48816941F4006181618069012248
:1034E00000F40060009002211920FFF7D7FCBDE82E
:1034F00008401920FFF7C4BC08BD0000002C0140A3
:103500000010024090F83D10012901D001207047C1
:10351000022180F83D100168CA6842F00102CA60C9
:1035200000680B49884208D0B0F1804F05D00949A6
:10353000884202D00849884204D1816801F007011D
:10354000062903D0016841F00101016000207047A5
:10355000002C0140000400400008004070B5044603
:1035600090F83C000025012817D0012684F83C6023
:10357000022084F83D002068826822F0770222F45D
:103580007F4282600868502838D00DDC20284FD058
:1035900005DC90B3102811D14AE0022070BD30281C
:1035A00046D040280AD13BE060282FD070280DD0AB
:1035B000B0F5805F03D0B0F5005F12D0012584F82C
:1035C0003D60002084F83C00284670BDCB68D1E9FE
:1035D0000121206801F08BFF2068816841F07701AC
:1035E00009E0CB68D1E90121206801F080FF206863
:1035F000816841F480418160E1E719E0CA68496867
:10360000206802F029F85021206806E0CA6849685D
:10361000206802F032F86021206801F072FFCEE7E6
:10362000CA684968206802F017F840212068F4E76A
:10363000226801461046F0E72DE9F0410D460400EE
:1036400003D094F83D0018B108E00120BDE8F081F6
:10365000002084F83C00204600F040F8022084F866
:103660003D002068816844F2070291438160211D7A
:10367000206801F0F3FE226890689169166A2B6851
:10368000AF69034340F20330814341EA0721A86850
:10369000EF6908434FF6FC418843E96840EA072098
:1036A000014328692F6A000140EA0730084369682E
:1036B0006D6926F0220646EA0515294393602268C3
:1036C000906154F8460B0162012004F81F09E0756F
:1036D0002076E0762077A0750020B7E700B585B0AA
:1036E000002100910191029103911A4B02681A483E
:1036F000C0219A4213D1C26942F00202C261C2697A
:1037000002F002020492826942F00402826180693E
:10371000009100F0040004906946104815E0104B39
:103720009A4214D1C26942F00402C261C26902F035
:1037300004020492826942F0080282618069009169
:1037400000F00800049069460648FEF783FF05B0C4
:1037500000BD0000000400400010024000080140CD
:1037600000080040000C014070B590F83E6004462F
:1037700090F83F5090F8423090F84320022021B159
:1037800004290ED0012E1BD114E0012E18D1012BDB
:1037900016D184F83E0084F84200012200212068FE
:1037A00020E0012D0CD1012A0AD184F83F0084F8D1
:1037B000430014E0012D03D1012B01D1012A01D0D6
:1037C000012070BD84F83E0084F83F0084F8420078
:1037D00084F8430001220021206801F07BFE0122D1
:1037E0000421206801F076FE2068016841F00101A3
:1037F0000160002070BD70472DE9F041044600686B
:10380000C66805694FF00007A90713D5B10711D5A0
:10381000F91E016101202077206880698007204619
:1038200002D0FFF7E8FF04E000F0A2F8204600F025
:1038300045F92777680716D5700714D521686FF00A
:1038400004000861022020772068806910F4407F1E
:10385000204602D0FFF7CFFF04E000F089F82046B1
:1038600000F02CF92777280715D5300713D52168E4
:103870006FF008000861042020772068C069800785
:10388000204602D0FFF7B7FF04E000F071F82046B1
:1038900000F014F92777E80616D5F00614D521684C
:1038A0006FF010000861082020772068C06910F4CC
:1038B000407F204602D0FFF79EFF04E000F058F85A
:1038C000204600F0FBF82777E80708D0F00706D07D
:1038D00021686FF001000861204600F03FF92806DA
:1038E00008D5300606D521686FF0800008612046B3
:1038F000FFF786FD680608D5700606D521686FF0CB
:1039000040000861204600F033F9A8060AD5B00649
:1039100008D521686FF0200008612046BDE8F0411D
:10392000FFF76FBDBDE8F08100B585B000210091C3
:103930000191029103910068B0F1804F11D10A48C2
:10394000816941F0040181618069694600F00400E9
:103950000490032000900220019003900348FEF79A
:1039600079FE05B000BD00000010024000080140D3
:10397000704770B5044690F83C0000260D460128BB
:103980000FD0012084F83C006AB1042A1DD0082A17
:103990002FD00C2A3FD00126002084F83C0030466E
:1039A00070BD022070BD206801F0B4FD20688169FF
:1039B00041F0080181612068816921F00401816181
:1039C000206881692A69114311E0206801F0CAFD6D
:1039D0002068816941F4006181612068816921F476
:1039E00080618161206881692A6941EA02218161DF
:1039F000D2E7206801F0E2FD2068C16941F00801CA
:103A0000C1612068C16921F00401C1612068C169F8
:103A10002A69114311E0206801F0FCFD2068C169AA
:103A200041F40061C1612068C16921F48061C16114
:103A30002068C1692A6941EA0221C161ACE710B579
:103A4000040003D094F83D0010B107E0012010BD40
:103A5000002084F83C00204600F01EF8022084F884
:103A60003D00211D206801F0F9FC012084F846008A
:103A700084F83E0084F83F0084F8400084F8410058
:103A800084F8420084F8430084F8440084F8450038
:103A900084F83D00002010BD08B50068B0F1804FEB
:103AA00008D10548C16941F00101C161C06900F058
:103AB0000100009008BD00000010024070470000A7
:103AC00010B50446022249B104290ED0082913D0AA
:103AD00094F84100012816D0012010BD94F83E0052
:103AE0000128F9D184F83E200FE094F83F00012826
:103AF000F2D184F83F2008E094F840000128EBD18F
:103B000084F8402001E084F841200122206801F07F
:103B1000E1FC0F492068884203D1426C42F4004224
:103B200042642068884208D0B0F1804F05D009492E
:103B3000884202D00849884204D1816801F0070117
:103B4000062903D0016841F001010160002010BD89
:103B5000002C0140000400400008004000680349B8
:103B6000884201D1FEF7F6B870470000002C0140F2
:103B70007047704700680649884207D16FF00E0110
:103B8000016001220349044800F0D6B970470000E3
:103B9000004400403A01002000030020F8B501680D
:103BA00004460868CA684B6910F00F0F4FF0000513
:103BB00059D003F0010602F49077374365D0C1076E
:103BC00005D0D10503D5616C41F001016164410765
:103BD00005D5D90703D0616C41F00201616481070A
:103BE00005D5D90703D0616C41F004016164010778
:103BF00007D502F02001314303D0616C41F0080188
:103C00006164616C00293AD0800604D5900602D523
:103C1000204601F073FD20684069616CC0F380109C
:103C2000090700D460B3204601F041FD20684069D7
:103C3000400621D52068143050E8001F21F04001D3
:103C400040E80012002AF5D1E06BA8B16D4941634C
:103C5000E06BFEF7EFFB002811D0E06B416B01B089
:103C6000BDE8F040084783060FD593060DD52046E2
:103C7000BDE8F84001F042BD2046FFF77BFFF8BDEC
:103C80002046FFF777FF6564F8BD266B2023012EE1
:103C90007CD1C6067AD5D60678D5086848680090E3
:103CA00048694FF00206400640D5E16B086840685D
:103CB0000004000CE8D0A28D8242E5D9E085886935
:103CC00020282DD020680C3050E8001F21F480718E
:103CD00040E80012002AF5D12068143050E8001F97
:103CE00021F0010140E80012002AF5D120681430CB
:103CF00050E8001F21F0400140E80012002AF5D1F1
:103D000084F84230256320680C3050E8001F21F011
:103D1000100140E80012002AF5D1E06BFEF766FBC7
:103D20006663A08DE18D401A81B22AE0A08DE18DFD
:103D3000401A81B2E08D0028A6D00029A4D02268C4
:103D40000C3252E8000F20F4907042E80007002F78
:103D5000F5D12068143050E8002F22F0010240E82D
:103D60000027002FF5D184F84230256320680C30FD
:103D700050E8002F22F0100240E80023002BF5D17C
:103D800066632046FFF7F5FEF8BDFFE705062BD575
:103D9000150629D594F841002128F5D1A068B0F581
:103DA000805F01D12069B0B1206A411C2162216885
:103DB00000784860E08C401E0004000CE084E3D1F1
:103DC0002068C16821F08001C1602068C16841F0AD
:103DD0004001C160D8E7206A0088C0F3080048604D
:103DE000206A801C2062E5E74006CDD55006CBD581
:103DF000CA68204622F04002CA6084F8413000F0D0
:103E000011F9C1E79F56000870B5040004D094F87A
:103E10004100002510B106E0012070BD84F840503B
:103E2000204600F023F8242084F841002068C1686F
:103E300021F40051C160204601F0C2FC20680169F4
:103E400021F4904101612068416921F02A0141611A
:103E50002068C16841F40051C1606564202084F885
:103E6000410084F842006563002070BD70B586B0E3
:103E7000002400940194029403942B4E03682B4970
:103E8000022003222A4DB34221D18B6943F480439F
:103E90008B618B6903F4804304938B6943F00403C3
:103EA0008B618969039201F0040104910102CDE95B
:103EB000001069462846FEF7CDFB2815CDE9000421
:103EC000694628460294FEF7C5FB06B070BD194E40
:103ED000B342FAD1CB6943F40033CB61CB6903F42D
:103EE000003304938B6943F004038B618969039267
:103EF00001F0040104910421CDE90010694628462F
:103F0000FEF7A8FB0820CDE9000469462846029484
:103F1000FEF7A0FB012211462620FEF7BFFF262058
:103F2000FEF7AEFFD1E7000000380140001002406C
:103F3000000801400044004090F84230202B01D09E
:103F40000220704721B11AB10023036301F094BC31
:103F50000120704710B50068074988420AD1074818
:103F60000078FEF77DF8BDE81040012203490448BF
:103F7000FFF7E2BF10BD0000004400403A010020FE
:103F8000000300202DE9F843044690F841009846CC
:103F900016460D46202802D00220BDE8F88385B1E0
:103FA0007EB100206064212084F84100FEF74CFCC3
:103FB000A6848146E684A0682027B0F5805F02D001
:103FC00003E00120E9E7206910B12E4600250EE04C
:103FD00000260CE08021204601F069FCA8B9C6B19A
:103FE00016F8010B21684860E08C401EE084E08CEC
:103FF0004B464FF00002CDF800800028EAD14FF088
:104000004001204601F053FC40B184F84170032088
:10401000C3E735F8020BC0F30800E3E784F841700A
:104020000020BAE77047FEE701684A69D2435205AB
:104030000FD46FF480624A61002140F8301F2022C3
:1040400042738173026942F004020261017301202C
:1040500070470020704700002DE9F84F04460068C3
:1040600089460B9D01689846174641F480610160BE
:104070002068016841F48071016000954FF0011BD8
:104080000022594620460A9B00F0E4F84FF4007ADB
:1040900040B120680068C00501D5C4F840A00320E5
:1040A000BDE8F88F216809F0FE0008612B46284919
:1040B00020460A9A00F016F9F0BB20684169806931
:1040C00000902A4620460A9900F0A2F940B1206CDF
:1040D00004283AD12068016841F40071016034E09D
:1040E000FEB2B8F1010F09D02168380A08612A46EA
:1040F00020460A9900F08CF90028E8D12068066172
:104100002A4620460A9900F083F90028DFD120686A
:10411000016841F4807101600095002259462046F3
:104120000A9B00F097F80028B3D1216809F0FF003E
:1041300040F00100086100E007E02B4604492046FA
:104140000A9A00F0CFF80028AAD00120A8E70000C2
:10415000020001002DE9F843044600680D46DDE940
:10416000089701689846164641F4807101604B46F5
:1041700000224FF001112046009700F06BF848B183
:1041800020680068C00502D54FF400702064032049
:10419000BDE8F883216805F0FE0008613B464A4609
:1041A0001549204600F09EF888B920684169806969
:1041B00000903A464946204600F02AF948B1206C62
:1041C000042804D12068016841F4007101600120D5
:1041D000DEE7F5B2B8F1010F09D02168300A0861B5
:1041E0003A464946204600F013F90028E7D12068F6
:1041F00005610020CCE700000200010070B5164602
:104200000D4604461EE02046FFF70EFF08B10120D0
:1042100070BD681C16D0FEF717FB801BA84200D8A3
:1042200085B920684069C04340070BD5002044F899
:10423000300F20216173A073216941F020012161B9
:104240002073E4E720684069C0434007DBD40020C6
:1042500070BD00002DE9F047984617460D4604460C
:10426000C1F30746DDF820902AE000BFB8F1FF3F18
:1042700026D0FEF7E9FAA0EB0901414502D8B8F1D2
:10428000000F1DD12068012E16D0806925EA00009C
:104290000004000C12D00020B84211D1002044F8D4
:1042A000300F20216173A073216941F02001216149
:1042B00020730120BDE8F0874069E7E70120EBE7C4
:1042C0002068012E0AD0806925EA00000004000C55
:1042D00006D00020B842C9D00020EBE74069F3E7E0
:1042E0000120F7E72DE9F047984616460D460446AB
:1042F0004FF000094FF0200AC1F3074723E0206880
:104300004069C043400515D42068016841F400713C
:10431000016021686FF480604861C4F8309084F8CF
:104320003DA084F83E90216C41F00401216484F8A2
:104330003C9021E0701C06D0FEF786FAA0EB080046
:10434000B04203D816B1012F1FD021E02068012F01
:1043500015D0806925EA00000004000C18D000BFC9
:1043600044F8309F84F80DA084F80E90216941F044
:104370002001216184F80C900120BDE8F08740699C
:1043800025EA00000004000CEAD12068406901E041
:104390002068806925EA00000004000CAFD1ECE73A
:1043A0002DE9F041002590460E460446202728E0DE
:1043B0004069C043C0060CD454F8301B6FF01000A5
:1043C000486144F810596777A577206A20622577FD
:1043D00014E0FEF739FAA0EB0800B04200D886B925
:1043E00020684069C04340060BD544F8305F6773CE
:1043F000A573206940F02000206125730120BDE8ED
:10440000F08120684169C9434906D1D40020F6E70C
:1044100070B516460D4604461EE02046FFF704FE22
:1044200008B1012070BD681C16D0FEF70DFA801B84
:10443000A84200D885B920684069C04300060BD562
:10444000002044F8300F20216173A073216941F0EE
:10445000200121612073E4E720684069C043000621
:10446000DBD4002070BD0000064B10B51A5C0A4278
:1044700005D0012901D08A431A54012010BD002023
:1044800010BD00002E0100200020044902460A54FD
:10449000401CC0B20428FAD3704700002E0100204F
:1044A00010B50C4A38B1012807D00B4A02280BD0AE
:1044B00003280BD006E0022100E001211046FEF7A0
:1044C000B9F928B1002010BD2021F7E71021F5E748
:1044D000012010BD000C014000080140FFF7D4BFCF
:1044E0002DE9F05F504C002204F1120562706078F3
:1044F00035F8101011B1491E25F81010401CC0B23B
:1045000060700428F3D32078401CC0B220701428B7
:104510006FD3454F2270BF1D3E1F924610466270FA
:1045200006F10C0806F108094FF0640BC0B2315CCB
:104530003954FFF7B5FF617801284246705418F8E6
:10454000013004D023F00103535458B113E043F079
:104550000103535417F801C0BCF1000F0BD143F015
:10456000020306E017F801C0BCF1010F03D143F0CC
:10457000040308F8013019F8013043B1012B0ED0C3
:10458000022B1FD0032B35D0042B35D044E001285B
:1045900042D14FF47A7025F8110001201FE018B1C4
:1045A00035F8110020B137E025F811A0022016E0FF
:1045B00025F811B018F80130042043F0200308F862
:1045C00001300CE0012803D035F8110050B123E090
:1045D00018F80130032043F0100308F8013009F8FF
:1045E000010019E018F8013043F0080308F8013021
:1045F00007E016E028B10FE018B135F8110018B146
:104600000AE009F801A007E025F811B018F8012028
:1046100042F0400208F80120491CC8B2607004282A
:1046200084D3BDE8F09F0000200100202DE9F04375
:1046300087B00E460EA91C4691E8800303A90E23FD
:104640004FF0050C8DE80A1015463B220123D021BE
:10465000FEF7C4F9002819D1BDF80C0040BA30802B
:10466000BDF80E0040BA2880BDF8100040BA208086
:10467000BDF8140040BA3880BDF8160040BAA8F85A
:104680000000BDF8180040BAA9F8000007B0BDE866
:10469000F08370B5054601226B2100F01FF80A2057
:1046A000FDF714FF00226C21284600F017F80722BE
:1046B0001921284600F012F800221A21284600F09D
:1046C0000DF8182422461B21284600F007F8224640
:1046D0002846BDE870401C21AFF3008017B583B0B9
:1046E0000A24012305AA8DE81C000A46D021FEF702
:1046F000A3FA06B010BD00002DE9F04F85B00024EC
:1047000047480094019402940394816941F0100198
:104710008161816901F010010491816941F02001FA
:104720008161816901F020010491816941F00401F6
:104730008161816901F004010491816941F00801FE
:1047400081618069012200F00800DFF8D8B05503CC
:10475000049029465846FEF772F84FF228070022C7
:1047600039463148FEF76BF84FF480780022414615
:104770002E48FEF764F84FF40049012249462B48C1
:10478000FEF75DF84FF4407A012251462648FEF7C5
:1047900056F80095032601250396CDE90154694694
:1047A0005846FDF757FF30208DE8310069461F4815
:1047B000FDF750FF009669461B48CDE90145FDF71E
:1047C00049FF00970396CDE9015469461648FDF765
:1047D00041FFCDF800800396CDE9015469461348A6
:1047E000FDF738FF0220CDE90240CDE9009569468A
:1047F0000E48FDF72FFF1020CDE9000469460A4856
:104800000294FDF727FF01AA1120CDF800A082E84D
:10481000510069460448FDF71DFF05B0BDE8F08F63
:104820000010024000100140000C0140000801404F
:104830000D4810B50B4901600C49416000214FF44F
:1048400080428160C0E9031241618161C1610162FE
:10485000FEF700F8002803D0BDE81040FDF73ABD90
:1048600010BD00000058004044010020A086010057
:1048700010B586B000241748009401940294039464
:1048800004941349059401604721C0E9011440F2E2
:10489000E731C0E9031444618461FEF7E7FD08B124
:1048A000FDF718FD4FF48050009069460948FEF767
:1048B00055FE08B1FDF70EFD049404A905480594C2
:1048C000FEF7A0FD002801D0FDF704FD06B010BDE5
:1048D000002C01409801002010B58AB000240794F4
:1048E0001C2168460894FBF727FD19484FF08041CA
:1048F00001602321C0E901146321C0E9031484612C
:10490000FFF79DF808B1FDF7E5FC079407A91048EB
:104910000894FEF777FD08B1FDF7DCFC6020CDE9D7
:10492000000402940022694609480494FFF721F824
:1049300008B1FDF7CFFC042269460548FFF719F8D6
:1049400008B1FDF7C7FC0248FEF7EEFF0AB010BD44
:10495000E001002010B58CB024216846FBF7ECFC88
:1049600000241648099414490A94C0E900144FF62B
:10497000FF71C0E90241046184610320CDE90004B4
:104980000120CDE902040F210491CDE90540CDE9D4
:10499000074169460948FEF74FFE08B1FDF79AFC4A
:1049A000099409A905480A94FEF72CFD002801D0B6
:1049B000FDF790FC0CB010BD000400402802002060
:1049C00010B58CB024216846FBF7B6FC00241748CC
:1049D000099415490A94C0E900144FF6FF71C0E923
:1049E0000241046184610320CDE9000401200F210C
:1049F0000222CDE90204CDE904120690CDE9074177
:104A000069460A48FEF718FE08B1FDF763FC0994F1
:104A100009A906480A94FEF7F5FC002801D0FDF725
:104A200059FC0CB010BD00000008004070020020CE
:104A30000C4810B50A4901604FF41651416000213D
:104A400081600C22C160C0E904128161C161FFF77D
:104A5000DBF9002803D0BDE81040FDF73BBC10BDDA
:104A600000380140B80200200C4810B50A49016026
:104A70004FF416514160002181600C22C160C0E9F1
:104A800004128161C161FFF7BFF9002803D0BDE8BE
:104A90001040FDF71FBC10BD004400400003002083
:104AA000FEE700002DE9F0410C462A4D66426FF00A
:104AB0006207012814D002284AD181034FF48048AC
:104AC000002C33DB01222846FDF7B9FE00224146C7
:104AD0002846FDF7B4FE632C00DD6324A0B233E06A
:104AE0004FF400514FF48058002C0DDB0022284673
:104AF000FDF7A5FE012241462846FDF7A0FE632CE6
:104B000000DD6324A0B20DE001222846FDF797FEE8
:104B1000002241462846FDF792FE632E00DD3C460A
:104B2000604280B2BDE8F04100F0DABA00222846C7
:104B3000FDF785FE012241462846FDF780FE632EE3
:104B400000DD3C46604280B2BDE8F04100F0CEBAE4
:104B5000BDE8F081000C014000B585B00021029055
:104B60000120049100910390FDF760FD04A96846BF
:104B7000FDF7BEFCFDF710FD05B000BD70B50C469D
:104B80000546FDF753FD2246002329460120FDF787
:104B90000DFDBDE87040FDF7FFBCFEE770B50024D9
:104BA0000021204600F01CF90025002000F010FA3A
:104BB0006D1CEDB2802DF8D3641CE4B2082CEFD349
:104BC00070BD002101E000BF491CB1EBC00FFAD35A
:104BD0007047000070B5154886B0816941F0080142
:104BE000816180694FF4807400F008000490002017
:104BF00002901120CDE9004003200D4E039069463C
:104C00003046FDF727FD6500694630460095FDF703
:104C100021FD012221463046FDF711FE01222946E1
:104C20003046FDF70CFE06B070BD000000100240DB
:104C3000000C01402DE9F0471D4E002407464FF0BF
:104C400080084FF40079B51528FA04F0384201D0F5
:104C5000012200E0002249463046FDF7F0FD012028
:104C6000FFF7AFFF012229463046FDF7E8FD02209D
:104C7000FFF7A7FF002229463046FDF7E0FD01209F
:104C8000FFF79FFF641CE4B2082CDDD30122294604
:104C90003046FDF7D4FD0220FFF793FF002229469E
:104CA0003046FDF7CCFDBDE8F0470120FFF789BF96
:104CB000000C014070B501220E4D540221462846D9
:104CC000FDF7BDFD0122160231462846FDF7B7FD6E
:104CD0000520FFF776FF002221462846FDF7AFFDAD
:104CE0000520FFF76EFF31462846BDE870400022E0
:104CF000FDF7A5BD000C014070B50D4D4FF40074DB
:104D0000002221462846FDF79AFD0122110228467D
:104D1000FDF795FD0520FFF754FF012221462846A7
:104D2000FDF78DFDBDE870400520FFF74ABF00008C
:104D3000000C014010B56420FDF7C8FBFFF74AFFE7
:104D4000AE2000F034F9D52000F031F9802000F0D9
:104D50002EF9A82000F02BF93F2000F028F9D320ED
:104D600000F025F9002000F022F9402000F01FF9A2
:104D7000A12000F01CF9C82000F019F9DA2000F099
:104D800016F9122000F013F9812000F010F9CF205D
:104D900000F00DF9D92000F00AF9F12000F007F930
:104DA000DB2000F004F9302000F001F9A42000F02D
:104DB000FEF8A62000F0FBF88D2000F0F8F8142093
:104DC00000F0F5F8AF2000F0F2F8BDE81040FFF772
:104DD000E5BE0246012000E05043491EFCD2704768
:104DE00010B50C4640F0B00000F0E1F8102040EAA9
:104DF000141000F0DCF804F00F00BDE8104000F0E3
:104E0000D6B800002DE9F0410746CE004000083E2C
:104E1000801E15464FF0FF38F1B2C0B2FFF7E0FF39
:104E20001148002400EB05152819A0F5805090F8D2
:104E3000000E00F0CDF8641CE4B2082CF4D308EBAB
:104E40004700F1B2C0B2FFF7CBFF00242819A0F54C
:104E5000805090F8080E00F0BBF8641CE4B2082CF7
:104E6000F4D3BDE8F0810000A07400082DE9FF5FD5
:104E700082B0144683F000401D46DDE9107B8A466F
:104E80000022009013462046294601F0DFFD07D896
:104E90002B2251460298FFF7B5FF2046294606E02F
:104EA0002D2251460298FFF7ADFF2046009901F0F0
:104EB0003BFC8146002616E0B91B0A20491EFFF77D
:104EC00088FFB9FBF0F10A20B1FBF0F200FB1210F1
:104ED0003030C2B20AEB0600401CC1B20298FFF7A4
:104EE00091FF761CF6B20AEB0708BE42E4D308F144
:104EF0000100C1B22E220298FFF784FF0022134660
:104F00002046294601F0A2FD00D9009D20462946F1
:104F100001F0DAFB01F035FC22462B4601F0CCFD16
:104F200005460C4659460A20FFF753FF01F040FCA6
:104F30002A46234601F08CFC0022124B01F0B0F906
:104F400001F0F2FB002405460A2616E0ABEB040153
:104F50000A20491EFFF73DFFB5FBF0F0B0FBF6F16C
:104F600006FB11003030C2B208EB0400801CC1B255
:104F70000298FFF747FF641CE4B25C45E6D306B035
:104F8000BDE8F09F0000E03F2DE9F04115460E46D8
:104F90000746002406E03019C1B23846FFF732FF59
:104FA000641CE4B22A5D002AF5D1BDE8F08110B599
:104FB0000446FFF77FFE7820FFF73CFE0020FFF756
:104FC00039FE2046FFF736FEBDE81040FFF794BEDD
:104FD00010B50446FFF76EFE7820FFF72BFE402049
:104FE000FFF728FE2046FFF725FEBDE81040FFF73B
:104FF00083BE0021016041608160C160C1610162C6
:1050000041628162C162704770B50446C069206226
:10501000D4E9000102F018F9E06122690546014671
:10502000104602F009F86062606910F0FF4F06D088
:10503000294602F001F8A16A01F060FE00E00020BC
:10504000A062216B02F0C4F801D2206BA062616BF8
:10505000A06A01F0BDFF01D2606BA062D4E901013A
:1050600002F0F2F80146A06980F0004001F0E4FF90
:105070000546E062D4E9090101F040FE294601F04D
:105080003DFEE060B0F5000F03DBA16B01F036FEE2
:10509000E06010F1FF4F03D3A16B02F0D5F8E060A0
:1050A000216B02F095F809D2256BE068294602F0E1
:1050B000CBF8A16A02F0BDF8E560A062616BE06820
:1050C00001F086FF09D2656BE068294602F0BCF862
:1050D000A16A02F0AEF8E560A0626068A06070BDF1
:1050E0000149096848637047E001002001490968E7
:1050F00088637047E00100207047704706480188C8
:105100000648418006490988818006490A88C2808C
:105110004988018100F050B900000020A804002057
:105120001A000020280000202DE9F047ADF54C7D45
:105130004FF4C875294603A8FBF7FEF8294667A86F
:10514000FBF7FAF80025FFF729FD012164A20846C4
:10515000FFF71AFF66A201210220FFF715FF68A2E0
:1051600001210320FFF710FF6AA201210420FFF7AD
:105170000BFF03AE0DF5CE7808210320FFF774F97D
:1051800038B3FFF781F9FFF709FD67A2012102207B
:10519000FFF7FAFE4FF496752846FDF797F9FFF7EB
:1051A000FDFC65A201210220FFF7EEFE2846FDF777
:1051B0008DF989F0004001F0D7FE6249088062490C
:1051C00084F000400860FFF799FF0DF54C7DBDE8C5
:1051D000F08720210320FFF747F910B1FFF754F9BA
:1051E000F3E7DFF86C915B4ACDE90029574902915A
:1051F000594B5A4A5A495B48FFF718FA5648B0F9D2
:10520000000001F0BEFA074655480C46B0F9000010
:1052100001F0B7FA3A46234600F042FD524A534B9A
:1052200001F0FAF80022524B01F012FB01F006F8EF
:10523000504904460860B9F9000001F0B1FE46F893
:10524000250048F825406D1CE8B26422B0FBF2F35B
:105250004FF0000902FB13054F464C46484656F8EE
:10526000241001F04BFD814658F82410384601F017
:1052700045FD641CE4B20746642CEFD33E4C48461F
:10528000214601F0AFFD81462146384601F0AAFDD6
:105290000446484601F006FD02274FF0030A0B467C
:1052A000CDE900A7024601210846FFF7DFFD2046B1
:1052B00001F0F8FCCDE900A702460B4601210220CF
:1052C000FFF7D4FD0EA201210320FFF75DFE11A21E
:1052D00001210420FFF758FE3220FDF7F7F84BE7D5
:1052E00047593A2B30303030302E3030000000003B
:1052F000416E676C653A2B3030302E303000000044
:1053000020204B65657020566572746963616C205E
:105310000000000020205072657373204B34204F32
:105320004B2020200000000043616C6962726174B0
:10533000696F6E204F4B0000506172616D205361A8
:10534000766564001A000020280000201800002064
:105350001600002014000020120000201000002081
:105360000E0000204401002044174154FB21094055
:10537000008066C0240000200000C8420FB400B5C1
:10538000A1B023AA68462299FAF798FF684600F070
:1053900003F821B05DF814FB10B50446FAF7ADFF31
:1053A000214682B2BDE810404FF0FF330148FEF7BE
:1053B000E9BD0000B80200202DE9F041094D284662
:1053C000FFF7CAFB0024084E5FEAA54705EB44003F
:1053D00036F81410FFF7D2FB641CA4B2BC42F5D31C
:1053E000BDE8F08100FC0008A8040020FDF7ECBC3B
:1053F00030B58FB028216846FAF79EFF14210AA81D
:10540000FAF79AFF01210804CDE900100024029464
:1054100002250491CDE907504FF4E0100990684649
:10542000FDF74AFE08B172B6FEE70F20CDE90A0586
:105430004FF48060CDE90C4002210AA80E94FDF7DC
:105440005FFD002801D072B6FEE70FB030BD704797
:105450000148FEF7D1B9000098010020F0B50268BC
:10546000194B1A4C1A4D4FF08047984205D0B8425C
:1054700003D0A04201D0A84203D122F070064A68AE
:105480003243984205D0B84203D0A04201D0A8428E
:1054900003D122F44074CA6822434C6922F080028E
:1054A000224302608A68C2620A688262984201D11D
:1054B00009690163012141610169C90703D00169DB
:1054C00021F001010161F0BD002C01400004004009
:1054D0000008004010B501F01F030121046A994043
:1054E0008C430462016A9A401143016210BD10B5F9
:1054F000846842EA032224F47F440A432243826000
:1055000010BD826822F070020A4342F007018160F8
:105510007047000030B5036A026A22F0010202629D
:105520004268846924F073050C682C4323F002055B
:105530008B682B430A4DA8420BD123F00805CB689A
:1055400022F440722B434D6923F0040315438A690A
:105550002A434260846149684163036230BD0000B0
:10556000002C014030B5026A036A23F01003036285
:10557000436884690D6824F4E64444EA05248D6890
:1055800022F0200242EA05120B4DA8420ED1CD684E
:1055900022F0800242EA05124D6923F4406343EA97
:1055A00085038D6922F0400243EA850343608461EC
:1055B00049688163026230BD002C014030B5036A46
:1055C000026A22F4807202624268C46923F40073A2
:1055D00024F073050C682C438D6843EA05230C4DB9
:1055E000A8420ED1CD6823F4006343EA05234D6938
:1055F00022F4405242EA05128D6923F4806342EAA4
:1056000005124260C4614968C163036230BD000095
:10561000002C014030B5046A026A22F48052026212
:105620004268C3690D6823F4E64343EA05238D68A5
:1056300024F4005444EA0534064DA84204D14D69CF
:1056400022F4804242EA85124260C36149680164E3
:10565000046230BD002C014010B5036A046A24F0D6
:1056600001040462846924F0F00444EA021423F083
:105670000A020A438461026210BD10B5036A046A1B
:1056800024F010040462846923F0A00324F470441D
:1056900044EA023243EA01118261016210BD10B591
:1056A000406A0021C185C184FEF764FA10BD01681B
:1056B0000C3151E8002F22F4907241E80023002BB6
:1056C000F5D10168143151E8002F22F0010241E8C0
:1056D0000023002BF5D1016B012909D101680C31A0
:1056E00051E8002F22F0100241E80023002BF5D1F1
:1056F000202180F8421000210163704708B590F81E
:105700004210222901D0022008BD82684FF4805344
:105710009A4201D1016921B1816A9A421BD04AB1F2
:105720000AE00268816A5268C2F308020A80816A4C
:10573000891C08E0026972B10268526802F07F02B7
:105740000A70816A491C8162C18D491E0904090CD5
:10575000C18503D01BE002685268F1E70168CA689E
:1057600022F02002CA600168CA6822F48072CA600E
:1057700001684A6922F001024A61202180F8421042
:1057800000214163026B012A03D0FEF7E3FB0020F6
:1057900008BD016301680C3151E8002F22F01002AE
:1057A00041E80023002BF5D101680A68D20602D532
:1057B0000A6849680091818DFEF7DBF9E7E7000090
:1057C00070B5044600680169E26821F44051114354
:1057D00001612169A0680843616908432168CA68BA
:1057E00041F20C639A430243CA6020684169A2698E
:1057F00021F44071114341611E492068884202D161
:10580000FDF724FC01E0FDF711FC00EBC00101EB0A
:105810000012606864218000B2FBF0F3B3FBF1F387
:105820006FF018067343B2FBF0F5B2FBF0F605EB30
:105830008305322303EB0515B5FBF1F5B6FBF1F655
:1058400005F0F00505EB0615B2FBF0F6B2FBF0F043
:10585000B0FBF1F06FF01802504306EB800003EB51
:105860000010B0FBF1F0216800F00F0028448860C0
:1058700070BD00000038014081628285C285002130
:105880004164222180F84210016921B10168CA688F
:1058900042F48072CA6001684A6942F001024A61BA
:1058A0000068C16841F02001C160002070472DE907
:1058B000F843984617460D460446089E24E0701C9F
:1058C00022D0FCF7C1FFA0EB0800B0421AD8CEB13D
:1058D0002068C168490717D5802D15D0402D13D0F9
:1058E0000168C94309070FD401680025406800908A
:1058F0002046FFF7DCFE0820606484F84050012059
:10590000BDE8F8830320FBE72068006835EA000063
:1059100004D00020B842D2D00020F1E70120F9E7FE
:105920000148FEF73BB9000000030020FEE74900F4
:1059300050EAC12018BF04204A0D18BF40F00100F2
:1059400040F2FF72B2EB515F08BF40F00200012845
:1059500008BF052070470907090E002804DB00F185
:10596000E02080F80014704700F00F0000F1E02004
:1059700080F8141D70472DE9F0414F1E00EBC70160
:105980000446D1E9000115461E4637F006020DD047
:105990002A46334600F05CFF7F1E04EBC703D3E9C1
:1059A000002300F07DFC37F00602F1D1022F25D054
:1059B000042F13D0062F18BFBDE8F0812A463346C6
:1059C00000F046FFD4E90A2300F06AFC2A46334679
:1059D00000F03EFFD4E9082300F062FC2A4633467B
:1059E00000F036FFD4E9062300F05AFC2A4633467D
:1059F00000F02EFFD4E9042300F052FC2A4633467F
:105A000000F026FFD4E9022300F04AFC2A46334680
:105A100000F01EFFD4E90023BDE8F04100F040BCD7
:105A2000012201F0BCBC00F03BBC0000024A002097
:105A3000110701F0B4BC000001FDFFFF30380A2857
:105A400001D20120704700207047000010B5074CBC
:105A50002088062803D2401C2080FFF74FFB2188B6
:105A6000BDE8104002A0FCF70DBB000000000020C4
:105A700053706565644C6576656C3D25640D0A0060
:105A80002DE9F84F04460D4621F00040009173497E
:105A9000814211DC7249884201DC06D12CB12046DA
:105AA0002946BDE8F84FFFF7BBBF6E48002DCCBFBD
:105AB0006D496E49BDE8F88F6D49814211DD6D4930
:105AC0008142D8BF4FF0FF366DDD20462946FFF7F3
:105AD0002EFF042808BFFFF7A9FF20462946BDE88E
